:020000040800F2
:10000000B0040020415E00086D5D00086F5D0008CF
:10001000715D0008735D0008755D00080000000058
:10002000000000000000000000000000775D0008F4
:10003000795D0008000000007B5D00087D5D000820
:10004000C55E0008C95E0008CD5E0008D15E0008EC
:10005000D55E0008D95E0008DD5E0008E15E00089C
:10006000E55E0008E95E0008ED5E0008F15E00084C
:10007000F55E0008F95E0008FD5E0008015F0008FB
:10008000055F0008095F00080D5F0008115F0008A8
:10009000155F0008195F00081D5F0008215F000858
:1000A000255F0008295F00082D5F0008315F000808
:1000B000355F0008395F00083D5F0008415F0008B8
:1000C000455F0008495F00084D5F0008515F000868
:1000D000555F0008595F00085D5F0008615F000818
:1000E000655F0008695F00086D5F0008715F0008C8
:1000F000755F0008795F00087D5F0008815F000878
:10010000855F0008895F00088D5F0008915F000827
:10011000955F0008995F00089D5F0008A15F0008D7
:10012000A55F0008A95F0008AD5F0008B15F000887
:10013000B55F0008B95F0008BD5F0008C15F000837
:10014000C55F0008C95F0008CD5F0008D15F0008E7
:10015000D55F0008D95F0008DD5F0008E15F000897
:10016000E55F0008E95F0008ED5F0008F15F000847
:10017000F55F0008F95F0008FD5F000801600008F6
:100180000560000800000000000000000000000002
:100190000E11111B11111B15110E00000E1F1F1542
:1001A0001F1F151B1F0E0000000A1B1F1F1F1F0E05
:1001B0000E04040004040E0E1F1F1F0E0E04040084
:1001C000040E0E0E041F1F0E040E000004040E0E7B
:1001D0001F1F1F0E040E0000000000000006060096
:1001E000000000001F1F1F1F1F19191F1F1F1F1FA7
:1001F000000000000E0A0A0E000000001F1F1F1F53
:10020000111515111F1F1F1F00001C1814060909C6
:10021000090600000006090909060202070200009B
:100220000000040C0C040404070300000C0A0E0A6E
:100230000A0A0E0E0303000000000000150E110E46
:100240001500000000000103070F07030100000074
:100250000000080C0E0F0E0C0800000000040E1524
:10026000040404150E04000000000A0A0A0A0A0029
:100270000A0A0000000E0B0B0B0B0A0A0A0A000008
:100280000006090106090608090600000000000032
:10029000000000000F0F000000040E1504040415F8
:1002A0000E041F0000040E150404040404040000DE
:1002B00000000404040404150E0400000000000201
:1002C000040F04020000000000000004020F0204FA
:1002D00000000000000000000001010F000000000D
:1002E0000000000A0A1F0A0A0000000000000004C3
:1002F000040E0E1F000000000000001F0E0E04047C
:1003000000000000000000000000000000000000ED
:100310000004040404040400040400000A0A0A0A95
:100320000000000000000000000A0A1F0A0A1F0A5D
:100330000A00000000020609010204080906040080
:10034000000B0B04040202020D0D00000002050563
:1003500005021509091600000C0C08040000000035
:100360000000000000040202020202020204000077
:100370000002040404040404040200000000041544
:100380000E0E15040000000000000004041F040409
:10039000000000000000000000000000060604024B
:1003A00000000000000F000000000000000000003E
:1003B0000000000006060000000808040402020213
:1003C00001010000000E09090909090909070000D7
:1003D0000004060504040404040F000000060909D3
:1003E00008040201010F00000006090808060808B9
:1003F0000906000000080C0A0A090F080808000096
:10040000000F01010107080809060000000C0201A5
:100410000709090909060000000F0808080404027A
:100420000202000000060909090609090906000080
:100430000006090909090E08040300000000000075
:100440000606000006060000000000000606000088
:10045000060604020000080402010102040800006C
:1004600000000000000F000F00000000000001026B
:100470000408080402010000000609090804040039
:100480000404000000060909090D0D01010E000019
:1004900000060909090F09090909000000070909EF
:1004A00009070909090700000006090901010101FE
:1004B00009060000000709090909090909070000E0
:1004C000000F0101010F0101010F0000000F0101E8
:1004D000010F0101010100000006090901010D09D8
:1004E0000906000000090909090F090909090000A6
:1004F000000E040404040404040E0000000E0404AE
:1005000004040405050200000009090505030505AA
:10051000090900000001010101010101010F0000B2
:100520000009090F0F090909090900000009090B51
:100530000B0D0D090909000000060909090909093F
:10054000090600000007090909070101010100006F
:10055000000609090909090909060408000709092B
:100560000907030509090000000609090106080931
:1005700009060000001F040404040404040400002D
:100580000009090909090909090600000009090902
:1005900009090A0A04040000000909090909090FE8
:1005A00009090000000909090606060909090000F1
:1005B000001111110A0A040404040000000F0804C9
:1005C00004020201010F0000000602020202020200
:1005D00002060000000101020204040408080000F1
:1005E00000060404040404040406000000040A00D5
:1005F00000000000000000000000000000000000FB
:100600000000001F060602040000000000000000B9
:100610000000000006080E09090E0000000101019B
:100620000709090909070000000000000E01010187
:10063000010E0000000808080E090909090E000053
:10064000000000000609090F010E0000000402026C
:100650000702020202020000000000000E09090960
:10066000090E08060001010107090909090900002E
:100670000000040004040404040E00000000040050
:100680000404040404040502000101010905030334
:10069000050900000006040404040404040E00001C
:1006A00000000000090F090909090000000000000E
:1006B000050B0909090900000000000006090909E5
:1006C00009060000000000000709090909070101E7
:1006D000000000000E090909090E080800000000CA
:1006E0000D0A0202020200000000000006090204D6
:1006F00009060000000002020702020202060000D2
:100700000000000009090909090E000000000000AE
:1007100009090A0A04040000000000000909090987
:100720000F09000000000000090906060909000081
:100730000000000009090909090E0807000000006F
:100740000F080402010F000000040202020102026D
:10075000020400000404040400040404040400006F
:10076000000204040408040404020000000A050056
:1007700000000000000000000004040A0A1111112A
:10078000111F0000000E0909090F090909090000DD
:10079000000F010101070909090700000007090905
:1007A0000907090909070000000F01010101010102
:1007B00001010000000C0A0A0A0A0A0A0A1F1100B5
:1007C000000F0101010F0101010F000000151515B7
:1007D000150E15151515000000060908080608086D
:1007E00009060000000909090D0D0B0B090900009D
:1007F000060909090D0D0B0B09090000000909057F
:100800000503050509090000000E09090909090980
:10081000090900000009090F0F0909090909000069
:1008200000090909090F0909090900000006090959
:100830000909090909060000000F09090909090940
:100840000909000000070909090701010101000069
:10085000000609090101010109060000001F040446
:10086000040404040404000000090909090E08082E
:100870000906000000040E151515150E04040000ED
:100880000009090906060609090900000009090905
:1008900009090909091F101000090909090E0808AA
:1008A000080800000015151515151515151F000071
:1008B0000015151515151515151F10100003030249
:1008C000020E1212120E000000090909090B0D0D8B
:1008D0000D0B0000000101010107090909070000D3
:1008E00000060908080E0808090600000009151589
:1008F0001517151515090000000E0909090E0C0A37
:10090000090900000000000006080E09090E000099
:1009100000000806010709090906000000000000A0
:100920000709070909070000000000000F01010185
:1009300001010000000000000C0A0A0A0A1F110051
:10094000000000000609090F010E00000000000071
:1009500015150E1515150000000000000609040805
:10096000090600000000000009090D0B090900003C
:100970000000040209090D0B090900000000000035
:100980000905030305090000000000000E0909091C
:100990000909000000000000090F09090909000009
:1009A0000000000009090F0909090000000000000B
:1009B0000609090909060000000000000F090909DD
:1009C0000909000000001500000A00001500000AD7
:1009D000000A0015000A0015000A00150A150A157C
:1009E0000A150A150A150A1504040404040404046B
:1009F00004040404040404040407040404040404B4
:100A00000404040407040704040404040A0A0A0A88
:100A10000A0B0A0A0A0A0A0A00000000000F0A0A62
:100A20000A0A0A0A00000000070407040404040478
:100A30000A0A0A0A0B080B0A0A0A0A0A0A0A0A0A16
:100A40000A0A0A0A0A0A0A0A000000000F080B0A2A
:100A50000A0A0A0A0A0A0A0A0B080F000000000024
:100A60000A0A0A0A0A0F0000000000000404040435
:100A70000704070000000000000000000007040455
:100A80000404040404040404041C00000000000026
:100A900004040404041F0000000000000000000023
:100AA000001F04040404040404040404041C0404D7
:100AB0000404040400000000001F00000000000007
:100AC00004040404041F04040404040404040404CB
:100AD0001C041C04040404040A0A0A0A0A1A0A0A66
:100AE0000A0A0A0A0A0A0A0A1A021E00000000007C
:100AF000000000001E021A0A0A0A0A0A0A0A0A0A62
:100B00001B001F0000000000000000001F001B0A67
:100B10000A0A0A0A0A0A0A0A1A021A0A0A0A0A0A1D
:100B2000000000001F001F00000000000A0A0A0A5F
:100B30001B001B0A0A0A0A0A040404041F001F00FF
:100B4000000000000A0A0A0A0A1F00000000000054
:100B5000000000001F001F04040404040000000043
:100B6000001F0A0A0A0A0A0A0A0A0A0A0A1E0000DA
:100B700000000000040404041C041C000000000029
:100B8000000000001C041C04040404040000000015
:100B9000001E0A0A0A0A0A0A0A0A0A0A0A1B0A0A9A
:100BA0000A0A0A0A040404041F001F0404040404BB
:100BB000040404040407000000000000000000001A
:100BC000001C0404040404041F1F1F1F1F1F1F1FF9
:100BD0001F1F1F1F0000000000001F1F1F1F1F1FDF
:100BE0000707070707070707070707071C1C1C1C41
:100BF0001C1C1C1C1C1C1C1C1F1F1F1F1F1F00005B
:100C000000000000000000000709090909070101B0
:100C1000000000000E010101010E000000000000B4
:100C20001F0404040404000000000000090909096D
:100C3000090E080700000000040E1515150E040427
:100C40000000000009090606090900000000000074
:100C500009090909091F1010000000000909090EFF
:100C6000080800000000000015151515151F0000EC
:100C70000000000015151515151F101000000000CC
:100C80000302060A0A0600000000000009090B0D15
:100C90000D0B00000000000001010709090700001A
:100CA0000000000007080E08080700000000000010
:100CB0000915171515090000000000000E09090E9E
:100CC00009090000090F0101010F0101010F0000D6
:100CD000000A0A000609090F010E000000060901BA
:100CE0000107010109060000000000000E010701D4
:100CF000010E00001104040404040404040E0000A6
:100D0000000A0A0006040404040E0000060909098A
:100D1000090E08080906000000000906090909096A
:100D2000090E08070609090600000000000000007F
:100D300000000000040E040000000000000000009D
:100D40000004040000000000001C04040404050565
:100D500006040000001D1D05051F07050505000010
:100D60000009060909090909060900000000000E2A
:100D70000E0E0E0E0000000000000000000000003B
:100D8000000000002DE9F04FA1B08046002017467A
:100D90001D4602910B900DF1440A6FF000490AE0E4
:100DA00017F8011B0298C0470028029000F0A182AA
:100DB0000B98401C0B90387808B90B989BE22528BB
:100DC000EED10020059006900790089009900A90B7
:100DD00001E040F0010017F8011F2029F9D0232974
:100DE0000DD02B2904D02D2906D030290AD00CE0B3
:100DF00040F0020080B2EEE740F00400FAE740F075
:100E00000800F7E740F01000F4E72A290ED129681E
:100E1000296051F8042B2960002A0D9204D5514213
:100E200040F004000D9180B27F1C11E000210D9173
:100E300009E00D99494505D001EB810302EB43011F
:100E400030390D917F1C3A78A2F130010A29F0D394
:100E500039782E2903D04FF0FF310C911DE017F89F
:100E6000011F2A2907D1296829607F1C51F8042B0A
:100E700029600C9211E000210C9109E00C99494580
:100E800005D001EB810302EB430130390C917F1C4B
:100E90003A78A2F130010A29F0D3ADF838000FF604
:100EA000C420397800F070FD08B117F8010B8DF8F7
:100EB0003A009DF83A00682802BF39786829622014
:100EC00005D06C2804BF38786C2803D171208DF8C8
:100ED0003A007F1C11A8049017F8014BB4F12500CB
:100EE00023D02038022840F2BB80133800F0E08085
:100EF0000B3800F04A81401E00F02381401E02287A
:100F000040F2AE80001F00F01C81401F79D0401ECF
:100F100000F0CE80401E24D0C01E0BD0801E00F0FA
:100F2000C780C01E00F0C48039E125208DF8440040
:100F300001203DE12868286050F8046B2860039682
:100F40000C9C002C04D5304600F02AFD044606E037
:100F500022460021304600F03FFD00B1841B06947C
:100F600027E1296829603C2451F8040B29600021FD
:100F7000CDE9000111A80390DDE90001049E11B93B
:100F800008B90C9AB2B10206120FA0EB021230326D
:100F9000D2B2631E3A2AA8BF273200099A5540EA06
:100FA0000170090908BF00281C4603D0039AA31941
:100FB0009A42E8D3A0190390C4F13C010C98069121
:100FC000814209DA401A08904FF6EF71BDF83800F7
:100FD0000840ADF83800ECE0002840F1EA809DF8C8
:100FE000380000F01400102840F0E3800D98059AB6
:100FF000801A089A801A441A012CC0F2DA800894E8
:10100000D7E09DF83A0062281AD0682806D06A28EE
:101010000CD06C281CD0712808D019E028682860F2
:1010200050F8041B28600B980880C2E028682860EC
:1010300050F8042B28600B98C117C2E90001B8E0F2
:101040002868286050F8041B28600B980870B0E0EE
:101050002868286050F8041B28600B980860A8E0F6
:101060002868C01D20F007022A60D2E9000108327A
:101070002A60CDE90001002902D505982D210AE05A
:10108000BDF83800810702D505982B2103E0C00781
:1010900005D50598202100F80A10401C059011A8DC
:1010A0000599081803902146684600F0E1F980E0B0
:1010B0009DF83A006C280DD0712818BF6A2809D114
:1010C0002868C01D20F007022A60D2E9000108321A
:1010D0002A6005E02968296051F8040B2960002185
:1010E000CDE900019DF83A00682803D1DDE900014F
:1010F00080B20BE0622803D1DDE90001C0B205E057
:10110000742818BF7A2804D1DDE900010021CDE957
:1011100000019DF8380000072ED5DDE90001002907
:1011200008BF002828D044F02000782824D1059852
:10113000302100F80A10401C411C059100F80A40BB
:101140001AE09DF83A00294600F0D8F8CDE90001F0
:10115000002902DA05982D210AE0BDF83800810740
:1011600002D505982B2103E0C00705D5059820215D
:1011700000F80A10401C059011A805990818039062
:101180002146684600F0F1F813E001200590286838
:10119000286050F8041B28608DF8441009E02520D1
:1011A0008DF84400012005901CB18AF8014002200E
:1011B00005900D980599401A0899401A0699401A09
:1011C0000999401A0799401A0A99441A9DF838005B
:1011D000400710D42020012C8DF840000BDB264660
:1011E000012310AA6946404600F0A5FB002840F004
:1011F0008080761EF4D1DDF814B0BBF1000F11AE83
:101200000CD016F8011B0298C0470028029070D03D
:101210000B98401CBBF1010B0B90F2D130208DF8E4
:101220004000089E012E09DB012310AA69464046B2
:1012300000F081FB00285CD1761EF5D1DDF818B0F6
:10124000039EBBF1000F0CD016F8011B0298C0479B
:10125000002802904DD00B98401CBBF1010B0B9065
:10126000F2D130208DF84000099E012E09DB0123C8
:1012700010AA6946404600F05EFB002839D1761E70
:10128000F5D103980699DDF81CB00E18BBF1000FDC
:101290000BD016F8011B0298C047029048B30B9878
:1012A000401CBBF1010B0B90F3D130208DF84000B6
:1012B0000A9E012E08DB012310AA6946404600F071
:1012C0003AFBB0B9761EF6D19DF8380040077FF59D
:1012D00072AD2020012C8DF84000FFF66CAD01238B
:1012E00010AA6946404600F026FB10B9641EF6D1EC
:1012F00061E54FF0FF3021B0BDE8F08F622826D0C5
:1013000068281DD06A2808D06C2827D0712804D0FE
:10131000742823D07A280CD020E00868C01D20F063
:1013200007000860D0E9002308300860194610461D
:1013300070470A680A6052F8040B0A60002170477F
:101340000A680A6052F8040B0A6000B20BE00A68EF
:101350000A6052F8040B0A6040B204E00A680A60AE
:1013600052F8040B0A60C11770472DE9FA4E054682
:101370000A462F696F2A08BF082405D041F02000D3
:10138000782814BF0A2410243C26D5E90001642AD9
:1013900018BF692A81468A4605D1002903DAD9F1A6
:1013A00000096AEB4A0ABAF1000F08BFB9F1000F51
:1013B0000CD1286B50B9082C36D195F838000007AD
:1013C00032D530203B2687F83B002DE0E317484616
:1013D0005146224600F02CFBA4FB0023A9EB02029D
:1013E0003032D2B2A6F1010B3A2A5E4603DB9DF8F9
:1013F0000030513B9A180BF8072081465FEA010A3A
:1014000008BFB9F1000F03D0E868F1198842DDD3B5
:10141000082C09D195F83800000705D5F05D302873
:1014200002D0761E3020F055C6F13C00A861F119BB
:10143000E960296B884208DA081A28624FF6EF71D2
:10144000288F08402887BDE8F38E00290ED595F82F
:10145000381001F01401102908D1696B6A69891AE2
:101460002A6A891A0E1A012EA8BF2E62BDE8F38ED1
:101470002DE9F34F8BB0D0E90089006B002801AF54
:1014800048BF062005D404BF41F02000672802D1E0
:1014900001200B99086340F2FF720B984168C1F379
:1014A0000A50904220D1080302BF0B980068002820
:1014B0000AD10B99032088619DF8300061381A2801
:1014C00058D30FF2B44109E00B99032088619DF8CD
:1014D000300061381A284AD30FF294410B98C06843
:1014E000032200F01DFB00E1012807DA0B9800F051
:1014F00052FB012802DB00230026EDE00B9ADFF807
:1015000054B1526840F2FE3161F31E520B994A60A9
:1015100040F2FE31461A404649460022002300F0C0
:101520005BFB38BF89F0004936B247F297507043F1
:10153000494990FBF1F636B2C6F10707012F9246F2
:101540001BDBF80707D552465B464046494600F08C
:101550005BFB804689465046594652465B467F10A3
:1015600000F052FB002F82468B46EAD126E00FF2B4
:10157000FC31B3E70FF2FC31B0E77F420024374D76
:1015800012E0F80707D552465B462046294600F090
:101590003BFB04460D465046594652465B4600F01A
:1015A00033FB7F1082468B46002FEAD140464946E6
:1015B00022462B4600F0FAFB804689469DF8300013
:1015C000DFF89CB040F02005662D0CBF06F10A0044
:1015D00006200B99096B4718142FA8BF132730203A
:1015E0008DF804000DF10504012F3BDB4046494610
:1015F00000F008FD014604F1080204234FF00A0C34
:10160000B1FBFCFC0CEB8C04A1EB4401303102F883
:10161000011C0A21BCFBF1FE0EEB8E04ACEB440472
:1016200030345B1E714602F8024DE7D1083F012FAE
:1016300002F10804D8DB00F005FD02460B464046E7
:10164000494600F00DFD00225B4600F0DDFA8046C1
:101650008946CBE700002440A08601000000F03F4F
:1016600084D797410DF10500201A0DF1050702E01E
:10167000401E761E7F1C39783029F9D0662D02D1A4
:1016800036B2711C03E0652D0CBF012100210B9ABD
:10169000126B8B181BB29842B8BF03461BB21900DD
:1016A0001AD4814204DAC85D3528A8BF392000DA8F
:1016B0003020CA19521E00E05B1E12F80149491E73
:1016C0008442F9D0392802D1C85D401CC855002990
:1016D00002D57F1E5B1C761C36B29DF830100B982D
:1016E00000961BB23A4600F003F80DB0BDE8F08F4B
:1016F0002DE9F043054685B01E46D5F83080012E11
:101700008946174602DA01260FF2702749F02000B9
:10171000BDF93040662808BF641C15D0672840F02A
:10172000938014F1040F7CDB44457ADA95F8380095
:10173000641C000702D44645B8BFB04624B2B8EBDB
:10174000040848BF4FF0000824B2E868A969012CDA
:1017500025DA4A1C30230B54B8F1010F03DA95F84F
:101760003810090702D52E211154521CAA6118EB1A
:10177000040FB8BFC8F1000424B26142A0446962FA
:10178000B045B8BF4646AB6936B2EE61324639461F
:10179000181800F0C5F9A8EB0600A862B4E0081814
:1017A000A64218DA3246394600F0BAF9A96971182A
:1017B000A01BB8F1010FA961686203DA95F838003F
:1017C000000705D5EA682E208854E869401CE861C6
:1017D000C5F8288098E02246394600F0A1F9A869AA
:1017E0002018361BB8F1010F03DA95F838100907F5
:1017F00003D5EA682E218154401C36B2A861B04559
:10180000B8BF4646E868AB6936B23246E1191818E7
:1018100000F086F9A8693018A861A8EB0600686294
:1018200072E0464504DA95F83810090758BFB0460B
:10183000B8F1010848BF4FF00008B9F1670F0CBFBD
:101840004FF065094FF04509A969E8684A1CAA618B
:10185000B8F1010F17F8013B0B5403DA95F8381073
:10186000090717D5531CAB612E211154B8F1010F94
:1018700010DB761E36B2B045B8BF464636B23246A9
:101880003946181800F04CF9A8693018A861A8EB7F
:1018900006006862E868A9690918200081F80090CC
:1018A00003D42B2048708F1C03E02D224A708F1C1C
:1018B000644200260DF1080808E00A22684600F09C
:1018C0008FFC019808F8010B761C009C21B20129BD
:1018D000F3DA022E06DA49F02000652804BF302032
:1018E00007F8010B4EB9302007F8010B07E0761E10
:1018F00002A8305C303007F8010B012EF7DAE868F7
:10190000A9690818381AE86195F8380000F0140041
:1019100010280DD16869A9690818696A0818E96969
:101920000818A96A0818696B8842BCBF081A28629F
:1019300005B0BDE8F083F8B504460D4616461F46CF
:10194000002077B116F8011BA868A047A86030B145
:10195000E86A401CE86200207F1EF3D1F2BD4FF020
:10196000FF30F2BD686A6C747A4C00006E616E00E4
:101970004E414E00696E6600494E460030000268D6
:10198000531C0360117070470278C9B28A421AB1C1
:101990001CBF10F8012FF9E718BF002070470000A6
:1019A00000F10103810704D010F8011B89B1810700
:1019B000FAD10268B2F10131914311F0803F04BFC6
:1019C00050F8042FF6E710F8011B11B110F8011BB5
:1019D000FBE7C01A70470000C9B2830706D0521E49
:1019E00022D310F8013B9942F7D11FE0083A13D3F4
:1019F00002F1040241EA012141EA014150F8043BAD
:101A0000121F21BF4B40A3F1013C2CEA030C1CF038
:101A1000803FF3D0C9B2001F083210F8013B521EBC
:101A200028BF91EA030FF8D818BF0120401E704765
:101A30001B4213D1094236D12AB18446B0FBF2F0E1
:101A400002FB10C2704700F0D3BBFCD3002200237E
:101A500070470B000200002100207047904271EB9C
:101A6000030CF6D370B5B1FA81F4B3FA83F52C1BED
:101A7000A340C4F1200532FA05F63343A2405FF0DB
:101A80000046E64002E05B085FEA3202841A71EB2E
:101A9000030524BF204629467641F4D302000B00FB
:101AA0003000002170BD012ACFD970B5140C20D0B0
:101AB000B1FA81F4B2FA82F5C4F120046419B4F1E8
:101AC0002006D6D3B2405FF00044F440002502E087
:101AD00052085FEA3303C61A71EB020E24BF304688
:101AE000714664416D41F3D302000B0020002900D0
:101AF00070BD0C46B1FBF2F102FB11452D0445EA25
:101B00001045B5FBF2F402FB145580B240EA0545DE
:101B1000B5FBF2F002FB105240EA044070BD000039
:101B200062B38B0708D0521E11F8013B00F8013B4D
:101B300000F024808B07F6D1830740F0208000BF9F
:101B4000103A07D330B4B1E83810103AA0E8381092
:101B5000F9D230BC530724BFB1E80810A0E8081040
:101B600044BF51F8043B40F8043BD20724BF31F88E
:101B7000022B20F8022B44BF0B7803707047083A01
:101B800007D3B1E80810083A40F8043B40F804CB0A
:101B9000F7D25307E4E730B4436803F00042012171
:101BA0001B031B0B436004BF0368002B08D10DE02F
:101BB0000368DD0F45EA440444605B000360491E8E
:101BC0004468E302F4D523031B0B436043681A43C4
:101BD0004260084630BC70474FF4001C1CEB410FBC
:101BE00094BF1CEB430F09E041EA030C50EA4C0C94
:101BF00052EA0C0C03D2994208BF9042704714BFBE
:101C00008B42824270470000B0B581EA030C0CF0B1
:101C1000004C40F2FF7515EA11541DBF15EA135729
:101C2000AC42AF4239E0E41923EA455343F4801350
:101C3000C90241F0004141EA505EC7021100A7FB12
:101C4000020200284FF00000EEFB01204FF00001DF
:101C5000E3FB072118BF42F001024018002149416F
:101C6000E3FB0E01A4F580640F0302D25200404151
:101C7000494154F101046CDD470872F1004250F112
:101C8000000051EB0451A1F580115CBF41EA0C0149
:101C9000B0BD4CEA05510020B0BD05EA1357AC4277
:101CA00014BFAF4241E050EA410E1CBF52EA430E5E
:101CB00002E061460020B0BD24423C441BD15FEAF3
:101CC000070EF6D0090302BF01460020AEF1140E44
:101CD000B1FA81F7AEEB070401FA07FE0C37C7F142
:101CE000200100FA07F7C8404EEA000E23EA4553E8
:101CF00043F48013A2E733F00043B3FA83F704BF41
:101D0000B2FA82FE77440B3FE41BB7F1200E2FBFDF
:101D100002FA0EF3BB40C7F1200E22FA0EFE38BFC6
:101D200043EA0E03BA40641C82E750EA410E14BF36
:101D300052EA430E6FF000014FF4001717EB430F08
:101D40008ABF194617EB410FB5E74CEA0551002051
:101D5000B0BDD4F10104B4F120070FDAC4F12007BB
:101D6000520828BF42F0010210FA07F501FA07F7FE
:101D7000E1BF2A43E0403843E1400FE0352C98DCD6
:101D8000C7F1200452EA400220FA07F218BF42F0DD
:101D9000010231FA07F0A1400A43002172F100422A
:101DA00050F1000051EB0C01B0BD00002DE9F041F5
:101DB00040F2FF7581EA030C0CF0004C15EA115457
:101DC0001DBF15EA1357AC42AF42E9E0BC41C1F375
:101DD0001301C3F31303801A994143F4801304D20F
:101DE000641E4000494180185941C90241EA5051DE
:101DF000B1FBF3F603FB1611A2FB0675D7EBC0206F
:101E0000A94102D2761E80185941C90241EA5051B7
:101E1000B1FBF3FE03FB1E11A2FB0E75D7EBC02036
:101E2000A94103D2AEF1010E80185941890241EA5D
:101E30009051760546EA8E2EB1FBF3F603FB1611A0
:101E4000A2FB0675D7EB8020A94102D2761E80182E
:101E50005941C90241EA50514EEA060EB1FBF3F670
:101E600003FB1611A2FB0675D7EBC020A94102D2D5
:101E7000761E80185941C90241EA5051B1FBF3F76F
:101E800003FB1711A2FB0735D3EBC020A94167F173
:101E900000070CBF004247F0010766F3D5274FEA61
:101EA0001E31B80814F5806414DDBD0775F10042D9
:101EB00050EB0E5051EB045111F5801F5CBF41EA0D
:101EC0000C01BDE8F0814CF07F6141F0E041002061
:101ED000BDE8F081BD076D0840EA0E5041F4801165
:101EE000D4F10104B4F120060ADAC4F1200602009C
:101EF000E04001FA06F3E1401843B24015430EE01A
:101F0000342C14DCC6F1200445EA40056D0820FAA3
:101F100006F2154321FA06F0A1400D43002175F1A8
:101F2000004250F1000051EB0C01BDE8F0810020AF
:101F30005FEA0C01BDE8F081CFB992185B41B3FABA
:101F400083F704BFB2FA82F6BF190B3FB7F1200640
:101F50002FBF02FA06F3BB40C7F1200622FA06F6AD
:101F600038BF3343BA401CB1E419641E2FE77F42E7
:101F700031F00041B1FA81F404BFB0FA80F6A4193F
:101F80000B3CB4F120062FBF00FA06F1A140C4F1CA
:101F9000200620FA06F638BF3143A0403C1B16E766
:101FA000AC421ABF05EA1357AF4214E050EA4106AB
:101FB0001CBF52EA4306BFE750EA4107304661467C
:101FC0001CBF41EA0551BDE8F08152EA430C08BF4D
:101FD000C143BDE8F08100204FF4001616EB410F1D
:101FE00098BF16EB430F08BF16EB410F24BFC14348
:101FF00005E016EB430F0CBF61464CEA0551BDE806
:10200000F0810000400D40EAC120490080F00D80C1
:1020100040F00040490DA1F58061491C05D4D1F183
:102020001F0154BFC840C01770474FF000007047F1
:10203000010040F10980F446404200F005F851F0FB
:1020400000416047010000BF09D0B0FA80F188402C
:10205000C91CC1F58461090501EBD0214005704719
:10206000F0B44FF0004591EA030F44BF6B4000F01D
:10207000C1B800BF841A71EB030604D26E40001B86
:10208000B141121973414FF4001C1CEB410F34BFD6
:102090007CEB430684E00C0DA4EB1356362E7DDC5E
:1020A000012E43DC45EAC32343EA525312BFD20256
:1020B00092025B08240545EAC12141EA5051D2EB66
:1020C000C020994125D407D1B0FA80F610FA06F164
:1020D00064D00020203608E0B1FA81F6B140C6F1A4
:1020E000200220FA02F21143B0404FEAF474B4EB3C
:1020F000465434F001064FEA74040AD8D6F50016A7
:10210000760D04F00044F04061FA06F25040F140D0
:102110004840C00A40EA415021F0004128BF5FEA30
:10212000500550F1000044EBD12137E045EAC323CC
:10213000DB0A45EAC121C90AB6F120050EDD42EAF3
:102140000242120CC5F1200603FA06F6EB4042EA01
:1021500006056D42984161F100010DE062FA06F555
:10216000F240554063FA06FC82EA0C02F3405A4002
:102170006D42904161EB030111F4801F05D1641E93
:10218000620502D06D004041494121F480114308AD
:1021900075F1004350F1000041EB0451F0BC704771
:1021A0001CEB410F15D223F0004352EA43060BD03B
:1021B0004FEA4C0CBCEB410F04D80C0D661E342EBC
:1021C000B7DDEBE7801A994150EA410608BF0021CC
:1021D000E4E708BF1CEB430F28BF6FF00001DDE709
:1021E00091FBF2F303FB1211C0E9003170470000CC
:1021F00070470000841A71EB030603D2001BB14143
:10220000121973414FF4001C1CEB410F34BF7CEBDF
:10221000430443E00C0DA4EB1356352E50DC45EA85
:10222000C323DB0A45EAC121C912B6F120050DDD41
:1022300063FA05F6EB4086EA0305124218BF45F043
:102240000105C01851F100010CD213E062FA06F545
:10225000F2405540F3415A40B340F3405A40801891
:10226000594107D349085FEA30005FEA350528BFC6
:1022700045F0010501F58011420875F1004250F169
:10228000000041EB0451F0BC4FF4001C1CEB410F6B
:1022900038BF70470020090D090570471CEB410F3E
:1022A00010D252EA43060BD0BCEB410F05D80C0DFF
:1022B000AB43661E342EB5DD02E0AB4380185941B6
:1022C000F0BC7047F0BC70472DE9F04784B00400C3
:1022D00088469146DFF8500A0078002802D1DFF8DE
:1022E0004C0A01E0DFF8480AE4B210EB0415DFF80D
:1022F000440A00680090DFF8400A0068002874D0A3
:10230000012000F0EAFDE4B20A2C11D00020DFF831
:10231000281A0860DFF8240A0068002804D5DFF8CE
:102320001C0A006800F052FE002000F0D6FD5CE0C0
:10233000B9F1020F54D398F80000824618F1010851
:1023400098F800005AEA002A18F10108DFF8EC09B1
:10235000006850F00040DFF8E4190860DFF8E00999
:102360000068002813D1DFF8D40900685FEA1A2159
:1023700011F0F001CAF3C31211435FEACA2212F44A
:10238000704211430843DFF8B41908601DE0DFF81C
:10239000AC0900685FEADA0111F470615FEA4A3261
:1023A00012F4700211435FEACA3212F47022114330
:1023B0000843DFF8881908600321DFF8800900F07E
:1023C00033FE0020DFF874190860DFF87409006834
:1023D00090F00100DFF868190860B9F10209A7E779
:1023E000002000F07AFD0020E5E0286810F1010FE0
:1023F00001D10220DFE0DFF830090078002850D159
:10240000E4B220001B2802D01D280CD086E0002258
:1024100041462E20FFF758FF002200212F20FFF712
:1024200053FF0020C7E04646307810F001009DF8C9
:10243000001011F07F0151EAC0108DF800003078D3
:10244000C0B240089DF8001060F386118DF80010AE
:102450003078C0B280089DF8001060F345118DF807
:1024600000103078C0B2C0089DF8001060F304116D
:102470008DF80010707890F001009DF8001060F366
:10248000C3018DF80010002269463020FFF71CFFC1
:1024900003208DF80800002202A93120FFF714FF65
:1024A00089E0E4B220001C2806D01D280ED01E288A
:1024B00021D028282DD031E047460020F870002296
:1024C00041462520FFF700FF002074E046463078A3
:1024D00010F0F70030703078C0F3400090F0010049
:1024E000317860F341013170B07810F0F80050F0AD
:1024F0000200B07012E098F80000DFF84818096890
:1025000050EA01200190002201A92820FFF7DCFEFB
:1025100051E098F80100DFF82C180860E86810F125
:10252000010F01D0E8688146012000F0D6FC286840
:1025300000F04CFDE4B20A2C11D10020DFF80018A5
:1025400008600020DFF8F41708600120DFF8E817C2
:1025500008604A4641460A20FFF7B6FE2BE028797C
:10256000012812D1A86800280CD0B9F1000F09D0B9
:102570004FF6FF7000F02AFD88F8000018F10108FE
:10258000B9F10109082000F0B5FC2879012804D12F
:102590004946404600F058FD03E04946404600F0F9
:1025A00043FD002000F099FC2879012802D1092080
:1025B00000F0A0FC002004B0BDE8F0877CB504006A
:1025C0000921DFF8840700F0A0FC00F00AFC80205D
:1025D00000F003FC002000F0F3FB4FF44870019082
:1025E0000198002803D00198401E0190F8E70120CF
:1025F00000F0E6FB4FF4FA7000F064FE0020DFF814
:1026000028170870002269462D20FFF75DFE00980C
:1026100010F0FF10DFF83417884203D00120DFF8F4
:1026200008170870DFF800070078012814D15FF45C
:1026300089100090002269462620FFF745FE0022FF
:1026400000211F20FFF740FE26200090002269464F
:102650002820FFF739FE06E03B2000900022694663
:102660001E20FFF731FE002200210220FFF72CFE82
:10267000DFF8B4060078002804D1002200213520BC
:10268000FFF722FE002200210420FFF71DFE00229A
:1026900000210D20FFF718FE00200090684606007C
:1026A000707850F001007070307810F0FE003070DB
:1026B000307810F0FD003070307810F0FB00307092
:1026C000307810F0F7003070002269461D20FFF7C7
:1026D000FBFD4FF403400090002269460920FFF7FC
:1026E000F3FD002269460820FFF7EEFD002C1AD109
:1026F000F02000900020050044F2104085420CD2EA
:102700005FF0FF3015F01F01C840009002226946BB
:102710000A20FFF7D9FD6D1CEEE700220021002002
:10272000FFF7D2FD05E048F6200221000A20FFF75E
:10273000CBFDDFF8F4050078012806D11F200090BA
:10274000002269462720FFF7BFFD4FF4966000F096
:10275000B9FD002200210720FFF7B6FD002076BD5D
:1027600038B504004FF40340009000226946092068
:10277000FFF7AAFD002269460820FFF7A5FD002CFF
:102780001AD1F02000900020050044F2104085424C
:102790000CD25FF0FF3015F01F01C84000900222FC
:1027A00069460A20FFF790FD6D1CEEE7002200212C
:1027B0000020FFF789FD05E048F6200221000A20ED
:1027C000FFF782FDDFF860050078012806D11F20A1
:1027D0000090002269462720FFF776FD31BDDFF823
:1027E00070351860DFF86C351960DFF86C351A60E9
:1027F0007047F8B504000D0016001F00842E09D3A1
:1028000040F2B122DFF85415DFF8540500F0AEFDB8
:10281000C046C046842F09D340F2B222DFF83C15EF
:10282000DFF8400500F0A2FDC046C046B44209D31F
:1028300040F2B322DFF82415DFF82C0500F096FDF6
:10284000C046C046BD4209D34FF42D72DFF80C15C7
:10285000DFF8180500F08AFDC046C046DFF8100515
:102860000460DFF810050560DFF80C050660DFF88E
:102870000C050760F1BDDFF808251060DFF80425BE
:1028800011607047F0B40400049D059EDFF8C00499
:10289000006800682860DFF8B804006840683060AD
:1028A000DFF8CC040068DFF8D8743F68DFF8A0C414
:1028B000DCF800C0DCF800C00CFB07002060DFF88B
:1028C000B80400682768B84201D200205DE0DFF854
:1028D000A4040068DFF8AC743F68DFF874C4DCF867
:1028E00000C0DCF804C00CFB07001060DFF88C04AB
:1028F00000681768B84201D2002046E0DFF8700493
:102900000068DFF87C743F687F1CDFF844C4DCF8A3
:1029100000C0DCF800C00CFB0700401E0860DFF8B8
:10292000580400680F68B8420BD228680F68C01BB3
:10293000DFF844743F6838182860DFF83C0400680A
:102940000860DFF830040068DFF838743F687F1CE7
:10295000DFF8FCC3DCF800C0DCF804C00CFB0700A7
:10296000401E1860DFF8140400681F68B8420BD2DC
:1029700030681F68C01BDFF804743F683818306087
:10298000DFF8F803006818600120F0BC70472DE9FB
:10299000F04F8DB080460125DFF8B40300680028B1
:1029A00002D15FF0FF30BBE1DFF8A40300680068EC
:1029B0000821B0FBF1F202FB1102002A01D0012034
:1029C00000E00020DFF888130968096810EBD107E0
:1029D0004046072800F02E81082853D0092800F02F
:1029E00092800A2805D00C2800F0E1800D2808D03C
:1029F00021E1DFF890030068401CDFF888130860CD
:102A000088E103A8019002A8009004AB05AA06A9DA
:102A100007A8FFF737FF002830D00798069950EA3B
:102A200001200B9000220BA90820FFF74DFC059810
:102A3000801C0499891C50EA01200B9000220BA9EC
:102A40000920FFF741FC5FF00009039881450FD290
:102A50005FF0000A0298824507D20222BE490A208E
:102A6000FFF732FC1AF1010AF4E719F10109ECE76A
:102A7000C3480068401CC2490860C2E70020C04942
:102A8000086047E1BE48006800283BD0BC480068A9
:102A9000401EBB49086003A8019002A8009004AB47
:102AA00005AA06A907A8FFF7EDFE00282AD0079877
:102AB000069950EA01200A9000220AA90820FFF78F
:102AC00003FC0598801C0499891C50EA01200A9097
:102AD00000220AA90920FFF7F7FB5FF0000903981D
:102AE00081450FD25FF0000A0298824507D2022288
:102AF00099490A20FFF7E8FB1AF1010AF4E719F1F6
:102B00000109ECE706E1A04800689D490968401A00
:102B10009B4909689C4A1268B1FBF2F19A4A126813
:102B200002FB010006005FF00009B1453ED20798A4
:102B3000069950EA01200990002209A90820FFF710
:102B4000C3FB0598801C0499891C50EA0120099058
:102B5000002209A90920FFF7B7FB03A8019002A8EA
:102B6000009004AB05AA06A907A8FFF78BFE002872
:102B70001CD05FF0000A039882450FD25FF0000B73
:102B80000298834507D2022273490A20FFF79CFB73
:102B90001BF1010BF4E71AF1010AECE77848006831
:102BA000401C7749086019F10109BEE7B2E072489C
:102BB00000686F490968401A0290704800686D49C2
:102BC0000968401A03906A4800686B49096850EA2E
:102BD00001200890002208A90820FFF775FB65482E
:102BE0000068801C65490968891C50EA012008902A
:102BF000002208A90920FFF767FB5FF0000903988E
:102C000048450FD35FF0000A0298504507D30222CF
:102C100051490A20FFF758FB1AF1010AF4E719F1AC
:102C20000109ECE7002057490860564800685449FC
:102C300008606FE06EE0464800688068804507D213
:102C400043480068C068804502D30020804604E005
:102C50003F4800688068B8EB00083D48006800699C
:102C60003B490968496801FB07F108FB01000400C2
:102C700003A8019002A8009004AB05AA06A907A822
:102C8000FFF700FE002840D00798069950EA01207F
:102C90000090002269460820FFF716FB0598801C6B
:102CA0000499891C50EA01200090002269460920FD
:102CB000FFF70AFB5FF000090398814525D23D002C
:102CC0005FF0000A029882451BD220781AF00701B3
:102CD000C0B2C840C00703D51E4800680C9002E08F
:102CE0001D4800680C9002220CA90A20FFF7ECFA9C
:102CF0001AF00700072801D1641C6D1E1AF1010AA1
:102D0000E0E72C1919F10109D6E71D480068401CBD
:102D10001B490860002200210020FFF7D5FA404639
:102D20000DB0BDE8F08F0000AC000020C4520008D8
:102D300024560008845E00089000002070000020E7
:102D40006C0000209400002040420F00FE000300B1
:102D500074000020780000207C000020945A0008B5
:102D6000285C0008685C0008305D0008805D000891
:102D7000880000208C0000200000002004000020BB
:102D80008000002084000020080000200EB470B5F0
:102D9000C1B004006E4645A805002A00210068461F
:102DA00000F0F6FA3078002806D03078FFF7EFFD13
:102DB000761C10F1010FF5D141B070BC5DF810FB2D
:102DC00010B50400002C01D0012200E00022D2B294
:102DD0000821A44800F054FB10BDC0B2A24908600D
:102DE000704700B58BB001210A2000F0D8FB00210C
:102DF0000A2000F01FFC00208DF8060000208DF84E
:102E0000070001208DF804000820009002208DF8B2
:102E100005006946934800F0D1FA0020FFF7D0FF83
:102E200000208DF8060000208DF8070002208DF8A4
:102E300004000120009002208DF8050069468B48AF
:102E400000F0BCFA02220021884800F020FB01219A
:102E5000022000F0D1FB0021022000F0FAFB8448A0
:102E600000F0C2FC8C20ADF81C000020ADF81E0064
:102E7000FF2008900020ADF8240000208DF82600E7
:102E800007A97B4800F01AFC6020ADF8080001207B
:102E9000ADF80A000420ADF80C00002004900020DA
:102EA000ADF814000020ADF816004FF48070ADF8B6
:102EB00018000020ADF81A0002A96D4800F033FC9C
:102EC00001216B4800F096FC0121694800F07EFC6E
:102ED0000020FFF782FF0BB000BD10B50400002CEE
:102EE00001D0002200E00122D2B240215D4800F072
:102EF000C7FA10BD0100082903D0092901D000201C
:102F000002E05C4801600120704730B583B00400E6
:102F10000D0001210F2000F042FB00210F2000F0E6
:102F200089FB00208DF8060000208DF807000120A5
:102F30008DF804004020009002208DF805006946BD
:102F4000484800F03BFA00208DF8060000208DF87C
:102F5000070001208DF804002020009002208DF849
:102F600005006946444800F029FA00208DF8060063
:102F700000208DF8070001208DF804000820009043
:102F800002208DF8050069463C4800F017FA002041
:102F90008DF8060001208DF8070000208DF8040050
:102FA0001020009002208DF8050069462F4800F09F
:102FB00005FA0020FFF791FF20203149088000200A
:102FC000FFF78BFF2800FFF795FF37BD10B4010016
:102FD00000200123274C2468641EA3401A00002A05
:102FE00020D02023274C23800A4203D00823264CDC
:102FF000238002E00823254C238040000523002B7A
:1030000001D05B1EFBE720231D4C2380204B1B6857
:10301000DB0600D5401C0523002B01D05B1EFBE71F
:103020005208DCE710BC704770B504000D002E009C
:103030003000461E002806D0207850F48070FFF73C
:10304000C5FF641CF4E770BD38B504000D00002D09
:1030500006D01048FFF7BAFF2070641C6D1EF6E71B
:1030600031BD0000000C02403C040040000402405E
:1030700000040040980000200000024000080240C8
:10308000180002401A000240180802401A080240C4
:1030900010040240F0FF0F0010B586B0040001A834
:1030A00000F022FA9D48006800900298C008B0FB2A
:1030B000F4F09B49086001209849086006B010BDF3
:1030C00000209649086070472DE9F84300245025F8
:1030D00001260027934800F09BFB002000F0AAFB8C
:1030E000012000F0A7FB022000F0A4FB002100203B
:1030F00000F0D6FB0021042000F0D2FB00210520C7
:1031000000F0CEFBDFF8208200F0CEFC002804D0D7
:10311000864800F07DFB01208FE0854800F078FBB9
:1031200000F01CFE002806D07FF00101401A15D0E7
:10313000401E0ED017E07F4800F06AFB0020FFF72A
:103140003DFA8020FFF749FE00F052FE00280FD123
:1031500028E0794800F05CFB01206EE0774800F041
:1031600057FB012069E0764800F052FB012064E043
:1031700000F0E7FE734800F04BFB4FF47F624FF422
:1031800070617148FFF72BFB8323832274210A208F
:10319000FFF72FFB00210020FFF76DFB6B48FFF7C7
:1031A000F5FD01E0012007000A20FFF775FF002070
:1031B00000F0D3FB01283CD058480068C003F6D586
:1031C000002000F063FB012000F060FB022000F013
:1031D0005DFB14F0030000F04FFB641CFFB2002FF6
:1031E0000BD000F0C8FE8146842384224146484625
:1031F00000F0E1FE4046FFF7B3FA042000F0ADFB1B
:10320000012808D1EDB2602DD1DA75192800C0B2BD
:10321000FFF7E3FDCBE7052000F09FFB0128C6D1B7
:10322000EDB2412DC3DBAD1B2800C0B2FFF7D5FDC9
:10323000BDE7474800F0ECFA0020BDE8F28380B516
:1032400001F0CCF95FF4E1304249086000204149C7
:10325000888000203F49C88000203E490881002026
:103260003C4988810C203B4948813A49002000F0C4
:1032700081FB29A000F0CCFA374800F0C9FA3748A2
:1032800000F0C6FA344800F0C3FAFFF719FF22A095
:1032900000F0BEFA304800F0BBFA314800F0B8FA4E
:1032A000FFF712FF00F051FD00F04BFE294900200E
:1032B00000F060FB2B4800F0ABFA274800F0A8FABA
:1032C000002002BD81B000280BD04FF47A7100912C
:1032D0000099002903D00099491E0091F8E7401E8B
:1032E000F1E701B07047F8B504000D0016000027A3
:1032F000002E0ED080211C4801F08EFA0028F9D053
:10330000297889B2184801F083FA6D1C7F1C761E5B
:10331000EEE73800F2BD00000A0D000010E000E00A
:1033200014E000E0D05C000820880060445D0008E4
:10333000F05D00087C5E0008845C0008E85C000822
:10334000005D0008445B000854000020005E000897
:10335000745B00089C000020D45A0008F45B00084D
:10336000105E0008205E00080014014000B583B024
:103370000091019202906A4604491820ABBE0028D1
:1033800001D101F058FA03B000BD00BF10100200D7
:1033900016B504460A46009401AB694606487844CF
:1033A0001630FDF7EFFC009A0021117000285CBF79
:1033B0000098001B16BD00BFC7E5FFFFF0B4002258
:1033C0000023002400252A00102A4AD20125954016
:1033D0002B000D681D402C009C4240D1056803263F
:1033E0001700FFB27F00BE40B543056005680E7947
:1033F0001700FFB27F00BE40354305600D79012DF7
:1034000002D00D79022D1AD1856803261700FFB26C
:103410007F00BE40B543856085684E791700FFB2D6
:103420007F00BE4035438560456801269640B54320
:10343000456045688E799640B6B235434560C568AB
:1034400003261700FFB27F00BE40B543C560C568C4
:10345000CE791700FFB27F00BE403543C560521CD5
:10346000B2E7F0BC704702000020136989B20B423A
:1034700002D00123180001E000231800C0B27047F9
:10348000D2B2002A01D0018300E041837047F0B43A
:1034900000230024D2B211F00705EDB2AD0012FAFC
:1034A00005F52B0089B2CD1010EB850589B2CE1041
:1034B00010EB8606366A0F2711F0070C5FFA8CFCBA
:1034C0005FEA8C0C17FA0CF7BE432E6289B2CD105E
:1034D00010EB85052D6A1D432C0089B2CD1010EB31
:1034E00085052C62F0BC704770B4002100220023D7
:1034F0000224DFF894512D6815F00C0529000D0009
:10350000002D04D0042D06D0082D08D01CE0DFF8D3
:10351000805105601BE0DFF87C51056017E0DFF8A3
:103520006C512D68C5F388152B00DFF860512D68AC
:10353000C5F301456D1C6D002C00B3FBF4F5DFF8FD
:1035400058617543056002E0DFF8445105604E4D57
:103550002D6815F0F00529000909DFF840514D5D8F
:103560002A000568D5404560474D2D6815F4E055A3
:103570002900890ADFF824514D5D2A004568D540AD
:103580008560414D2D6815F460452900490B434D78
:103590004D5D2A004568D540C56070BC7047C9B212
:1035A000002905D03E4A126802433D4B1A6004E0F0
:1035B0003B4A126882433A4B1A607047C9B20029ED
:1035C00005D0384A12680243364B1A6004E0354A87
:1035D00012688243334B1A607047C9B2002905D084
:1035E000314A12680243304B1A6004E02E4A1268D6
:1035F00082432D4B1A607047C9B2002905D02B4A6F
:1036000012680243294B1A6004E0284A1268824378
:10361000264B1A607047C9B2002905D0244A1268A7
:103620000243234B1A6004E0214A12688243204B74
:103630001A607047C9B2002905D01E4A12680243B9
:103640001C4B1A6004E01B4A12688243194B1A6033
:103650007047C9B2002905D0174A12680243164BB9
:103660001A6004E0144A12688243134B1A607047D0
:103670000022054B1B681A0032F0EC6251EA00038D
:103680001A43014B1A607047083802400438024060
:103690000024F40040787D0140420F00305E0008B5
:1036A0003038024034380240383802404038024056
:1036B000443802401038024020380240002203887B
:1036C0001A003B4B98420ED03F4B98420BD0B0F1C2
:1036D000804F08D0374B984205D0374B984202D0E4
:1036E000364B984204D14FF68F731A404B881A43D9
:1036F000334B984207D0334B984204D04FF6FF43E8
:103700001A400B891A4302804B68C3620B880385F9
:10371000274B984202D02C4B984201D18B7A0386DA
:1037200001238382704770B4002300240022058C9B
:103730004FF6FF6635400584058C2C0085882A00ED
:10374000858B2B004FF68F752B404FF6FC752B4069
:103750000D882B434FF6FF552C408D8954EA0524E4
:103760004D8854EA0524124DA84202D0164DA842B5
:1037700017D14FF2FF752C40CD8954EA05244FF63E
:10378000FF352C408D8854EA05244EF6FF752A40FB
:103790004DF6FF752A400D8A52EA05124D8A52EA0B
:1037A0000512828083838D68C563048470BC704772
:1037B000000001400004004000080040000C0040F0
:1037C000001000400014004000040140C9B200296C
:1037D00004D0028852F00102028004E002884FF611
:1037E000FE731A400280704701894FF6F87211404B
:1037F00001817047C9B2002904D0028852F08002CA
:10380000028004E002884FF67F731A4002807047FE
:103810000EB400B582B003A9009102466B460121A7
:10382000034878440A30FDF7ADFA06BC5DF810FB9A
:10383000E92400001CB5040001218548E4B250F8D9
:103840002400FFF7ACFE8348E4B230F81400009087
:1038500001208DF8040000208DF8060001208DF86D
:10386000070002208DF8050069467B48E4B250F855
:103870002400FFF7A3FD13BD7649C0B231F8101044
:10388000754AC0B252F82020118370477149C0B206
:1038900031F81010704AC0B252F82020518370479E
:1038A00030B585B004000D0001216C48E4B250F839
:1038B0002400FFF774FE01214FF48040FFF7ABFEB8
:1038C00000208DF8100000208DF813006448E4B249
:1038D00030F81400039003A96248E4B250F82400C1
:1038E000FFF76CFDEDB2012D35D15F48E4B230F841
:1038F0001410C9B25D48E4B230F81400C0B200F050
:103900009DFF5B48E4B230F81400019000208DF870
:103910000800E4B2002C03D00C208DF8090002E06E
:1039200008208DF8090001208DF80A0001A800F098
:10393000AFFF5048E4B230F814008DF800000F20BB
:103940008DF801000F208DF8020001208DF8030092
:10395000684600F0E9FF05B030BD10B504004048EE
:10396000E4B230F814103F48E4B250F82400FFF7F6
:103970007AFD10BD30B583B004000D0001213E4832
:10398000E4B250F824003D4AE4B252F82420104337
:10399000FFF705FEE4B2002C06D101213848E4B25D
:1039A00050F82400FFF737FE3648E4B230F8142010
:1039B000D2B23548E4B230F814103448E4B250F8CA
:1039C0002400FFF764FD3248E4B230F81420D2B28C
:1039D0003048E4B230F814102F48E4B250F8240014
:1039E000FFF755FD00208DF8060001208DF8070037
:1039F00002208DF804002948E4B230F81400009049
:103A000002208DF8050069462048E4B250F82400F1
:103A1000FFF7D4FC02208DF804002148E4B230F80E
:103A20001400009069461C48E4B250F82400FFF7E7
:103A3000C5FC29001B48E4B250F8240000F05CFEED
:103A400001211848E4B250F8240000F0D3FE37BD3D
:103A5000905D00085C5E00080C000020485C0008D7
:103A6000A05D00081C000020D05D0008C05D0008BB
:103A7000B05D0008E05D00086C5E0008745E000840
:103A8000645E0008985E0008905E00084400002014
:103A90009C5E0008945E00084C000020885E0008D0
:103AA0008C5E00083C000020F0B599B00024012194
:103AB0000120FFF792FD01217820FFF770FD4CF205
:103AC0000370009002208DF8040000208DF806009D
:103AD00003208DF805006946C048FFF76FFC0C22F3
:103AE0000021BE48FFF7D3FC0C220121BB48FFF7A1
:103AF000CEFC0C220821B948FFF7C9FC0C22092191
:103B0000B648FFF7C4FC0C220A21B448FFF7BFFCFB
:103B10000C220E21B148FFF7BAFC0C220F21AF484E
:103B2000FFF7B5FC4FF6807000906946AC48FFF790
:103B300045FC0C220721AA48FFF7A9FC0C2208210A
:103B4000A748FFF7A4FC0C220921A548FFF79FFC1A
:103B50000C220A21A248FFF79AFC0C220B21A04854
:103B6000FFF795FC0C220C219D48FFF790FC0C22DE
:103B70000D219B48FFF78BFC0C220E219848FFF784
:103B800086FC0C220F219648FFF781FC4FF23F0084
:103B9000009069469348FFF711FC0C2200219148E0
:103BA000FFF775FC0C2201218E48FFF770FC0C22F8
:103BB00002218C48FFF76BFC0C2203218948FFF798
:103BC00066FC0C2204218748FFF761FC0C220521CA
:103BD0008448FFF75CFC0C220C218248FFF757FC5D
:103BE0000C220D217F48FFF752FC0C220E217D484C
:103BF000FFF74DFC0C220F217A48FFF748FC3F20CD
:103C0000009069467848FFF7D9FB0C2200217648DE
:103C1000FFF73DFC0C2201217348FFF738FC0C2212
:103C200002217148FFF733FC0C2203216E48FFF795
:103C30002EFC0C2204216C48FFF729FC0C220521E4
:103C40006948FFF724FC4FF4C05000906946634870
:103C5000FFF7B4FB0C220B216048FFF718FC0C2285
:103C60000C215E48FFF713FC3020009069465B484A
:103C7000FFF7A4FB0C2204215848FFF708FC0C2294
:103C800005215648FFF703FC802000906946534801
:103C9000FFF794FB0C2207215048FFF7F8FB0320A5
:103CA000009069464E48FFF789FB0C2200214C48E2
:103CB000FFF7EDFB0C2201214948FFF7E8FB00204C
:103CC0000290002003900420049001200590002021
:103CD0000690002007900020089000200990002006
:103CE0000A9000200B9010200C9000200D900020D6
:103CF0000F9000201090002011904FF480501290EF
:103D0000002013900020149000200E9000201590A9
:103D100002A8169002A8179009A800F05DFE0121E4
:103D2000002000F0C9FE5FF4002500265FF0C047C8
:103D300032002900380000F0DDFE002C02D05FF0D8
:103D4000FF3000E0002019B0F0BD80B5002000F089
:103D500027FE00210120FFF740FC01BD10B5C4B0D3
:103D6000684622494FF48872FDF7EAFE5FF0C040D2
:103D7000010000200400B4F5003F03D20C60091DCF
:103D8000641CF8E75FF0C040010000200400B4F5B7
:103D9000003F09D20800011D0068A04202D05FF078
:103DA000FF3018E0641CF2E75FF0C0400100002023
:103DB0000400442C0ED2684650F8240008600868BD
:103DC0006A4652F82420904202D07FF0010002E0BF
:103DD000641CEEE7002044B010BD0000000C02405F
:103DE00000100240001402400018024084590008EC
:103DF00030B583B0002400F0DDFA01210120FFF787
:103E0000CEFB4FF48070009002208DF8040000205B
:103E10008DF8060000208DF8070002208DF80500BF
:103E20006946DFF87C07FFF7C9FA00215FF48000DC
:103E3000FFF71EFC01212020FFF7B1FB4FF40070BB
:103E4000009001208DF8040000208DF8060000206D
:103E50008DF8070002208DF805006946DFF8440759
:103E6000FFF7ACFA01224FF40071DFF83807FFF7D3
:103E700007FB00F0B3F901212020FFF790FB4FF47E
:103E80000060009001208DF8040001208DF80600EC
:103E900000208DF8070002208DF805006946DFF844
:103EA0000407FFF78BFA01224FF40061DFF8F406F4
:103EB000FFF7E6FA01210220FFF771FB04200090D2
:103EC00001208DF8040000208DF8060000208DF8F8
:103ED000070002208DF805006946DFF8CC06FFF7E1
:103EE0006DFA01220421DFF8C006FFF7C9FA00F0DD
:103EF00090FA222000F011FB20430400002000F083
:103F00000CFB2043040000F096FA002C0CD100F0CA
:103F100080FA232000F001FB20430400012000F080
:103F2000A4FA050000F087FAEDB2402D02D05FF050
:103F3000FF300400002C02D05FF0FF3000E00020D2
:103F40003EBD80B5DFF8640600F008FE00224FF4A5
:103F50000071DFF85006FFF793FA00224FF400617A
:103F6000DFF84006FFF78CFA00F03CFF002101204B
:103F7000FFF724FB01BD80B50121DFF8300600F01A
:103F8000B9FE012000F07FFFDFF82416DFF81C06E1
:103F900000F0C0FE0128F7D1DFF81416DFF80C0698
:103FA00000F0D7FE42F20821DFF8000600F0AFFE75
:103FB0005FF0C04002BD2DE9FC4F83B007000C004C
:103FC000BDF80C00BDF8101048434500002D00F16D
:103FD000028138788DF809007F1C38788DF8080048
:103FE0007F1C38788DF80A007F1C387882467F1C49
:103FF0009DF8090000F086FF83465FFA8AFABAF15D
:10400000800000F075FFDFF8AC1500F08BFF59461B
:1040100000F0F4FF81469DF8090000F073FF83462D
:104020005FFA8AFABAF1800000F062FFDFF88815C3
:1040300000F078FF0100584601F022F801F094F8F2
:10404000CDE900019DF808008038FDF7F1FFDFF8A9
:104050006C25DFF86C35FDF7D7FD02000B00DDE9BC
:104060000001FDF7FDFF01F0A7F806009DF809002B
:1040700000F048FF83469DF80800803800F038FFC4
:10408000DFF8401500F04EFF594600F0B7FF8046BC
:104090004846002101F0D8F801D2002081463000C6
:1040A000002101F0D1F801D2002006004046002195
:1040B00001F0CAF801D200208046300001F0D6F8A5
:1040C000C00010F0E00B404601F0D0F8C0B25BEA4F
:1040D000D0002070641C484601F0C8F810F0F80BBE
:1040E000300001F0C3F8C0B25BEA50102070641CCD
:1040F0009DF80A0000F006FF83465FFA8AFABAF1DB
:10410000800000F0F5FEDFF8AC1400F00BFF59461C
:1041100000F074FF81469DF80A0000F0F3FE83462C
:104120005FFA8AFABAF1800000F0E2FEDFF8881444
:1041300000F0F8FE0100584600F0A2FF01F014F86C
:10414000CDE900019DF808008038FDF771FFDFF828
:104150006C24DFF86C34FDF757FD02000B00DDE93D
:104160000001FDF77DFF01F027F80600DFF8580495
:1041700080464846002101F067F801D200208146C0
:104180003000002101F060F801D200200600404616
:10419000002101F059F801D200208046300001F0E2
:1041A00065F8C00010F0E00B404601F05FF8C0B2C7
:1041B0005BEAD0002070641C484601F057F810F00C
:1041C000F80B300001F052F8C0B25BEA50102070DA
:1041D000641CAD1EFAE605B0BDE8F08F00B597B0DF
:1041E00001211720FFF7DBF901210120FFF7E6F994
:1041F0000D220621DFF8A803FFF749F90D2204215B
:10420000DFF89C03FFF743F90D220721DFF898033D
:10421000FFF73DF90D220621DFF8B003FFF737F96C
:104220000D220A21DE48FFF732F90D220821DFF8BE
:104230009C03FFF72CF90D220921DFF89003FFF70B
:1042400026F90D220421E248FFF721F90D2206216B
:10425000D548FFF71CF90D220521DD48FFF717F9B6
:104260000D220621DA48FFF712F9102000900220F3
:104270008DF8040003208DF8050000208DF806005D
:1042800001208DF807006946C548FFF797F88020A0
:1042900000906946C448FFF791F840200090022042
:1042A0008DF8040000208DF806006946BC48FFF731
:1042B00085F84FF4507000906946C448FFF77EF8C7
:1042C0004FF4806000906946B548FFF777F870209A
:1042D00000906946BE48FFF771F84020009069469B
:1042E000B148FFF76BF800F07DFD0220ADF810003B
:1042F0000020ADF812000020ADF814008020ADF8C9
:1043000016000020ADF818000020ADF81A000020BB
:10431000ADF81C0004A800F07BFD0020ADF80800FB
:104320008320ADF80C000020ADF80A0040F2071021
:10433000ADF80E0002A800F099FD012000F0B4FDD8
:10434000012000F082FD01215FF48000FFF727F9D2
:10435000964800F003FC5FF0007008909D480990BB
:104360005FF0C0400A9000200B9042F208200C90B1
:1043700000200D904FF480600E904FF480500F900D
:104380004FF480501090002011905FF40030129094
:104390000020139003201490002015900020169008
:1043A00008A9824800F07AFC0121804800F0A2FCB4
:1043B00017B000BD00B583B001214020FFF7EFF832
:1043C0004FF4A050009001208DF8040001208DF8DA
:1043D000060001208DF8070000208DF805006946D1
:1043E0007D48FEF7EBFF01224FF480517A48FFF73A
:1043F00047F801224FF480617748FFF741F800F059
:1044000001F807BD42F210700100481E0029FBD1DF
:10441000704780B500224FF480516F48FFF730F8A5
:10442000FFF7F0FF00224FF480616B48FFF728F898
:10443000FFF7E8FF01BD80B500224FF480516648C8
:10444000FFF71EF8FFF7DEFF01224FF4806162489C
:10445000FFF716F8FFF7D6FF01224FF480515E48B0
:10446000FFF70EF8FFF7CEFF01BD70B50400002581
:1044700001224FF480515848FFF702F8002006004F
:10448000F6B2082E1EDAFFF7BDFF01224FF480615D
:104490005148FEF7F5FFFFF7B5FF4FF480514E4846
:1044A000FEF7E1FF10F0010028430500F6B2072EE9
:1044B00000D06D0000224FF480614748FEF7E0FF16
:1044C000761CDDE7FFF79EFFE4B2002C01D001224D
:1044D00000E00022D2B24FF480513F48FEF7D0FFF7
:1044E000FFF790FF01224FF480613B48FEF7C8FFC1
:1044F000FFF788FF00224FF480613748FEF7C0FFC6
:10450000FFF780FF01224FF480513348FEF7B8FFD8
:10451000FFF778FF2800C0B270BD38B50400002056
:104520000500EDB2082D1ADA2000C0B2C2094FF41E
:1045300080512948FEF7A4FF6400FFF763FF0122C2
:104540004FF480612448FEF79BFFFFF75BFF0022DA
:104550004FF480612048FEF793FF6D1CE1E70122D4
:104560004FF480511C48FEF78BFFFFF74BFF0122F1
:104570004FF480611848FEF783FFFFF743FF4FF4C5
:1045800080511548FEF76FFF050000224FF480614F
:104590001148FEF775FFFFF735FF2800C0B232BDA6
:1045A000000002400014024000040240286402405F
:1045B00000080010EE7CAF3F21B0323F1B2FDD24FE
:1045C0000681D53F2DB2DD3F0000204100080240AA
:1045D00000100240280005500018024080B53E48F7
:1045E000006850F001003C49086000203B49086029
:1045F000394800683A49084037490860002039497D
:1046000008603548006830F4802033490860002095
:104610003549086000F005F85FF000603349086034
:1046200001BD82B000200190002000902A4800685F
:1046300050F48030284908602748006810F40030A2
:1046400000900198401C01900098002803D1019827
:10465000B0F5A06FF0D120480068800302D501209A
:10466000009001E0002000900098012832D11B4802
:1046700000681A4908601948006850F4004017495A
:1046800008601648006850F4A050144908601848A3
:10469000144908601048006850F080700E490860A6
:1046A0000D4800688001FBD540F203701149086095
:1046B0000A480068800880000849086007480068C8
:1046C00050F00200054908600448006810F00C0032
:1046D0000828F9D102B0704700380240083802407B
:1046E000FFFFF6FE043802400C38024008ED00E0FF
:1046F000193C4025003C02402DE9F04385B0040000
:104700000D005FF00009002600275FF00008A8896F
:104710000028208A814639F44059E88850EA09097E
:10472000A4F81090A0898146314810EA0909A888A8
:10473000298908436989084350EA0909A4F80C90BB
:10474000A08A814639F44079A88950EA0909A4F879
:1047500014906846FEF7C8FE2348844202D02348DE
:10476000844202D10398060001E002980600A08965
:10477000000408D5192000FB06F029684900B0FBA9
:10478000F1F0070007E0192000FB06F02968890016
:10479000B0FBF1F007006420B7FBF0F000018146A8
:1047A0005FEA1910642101FB10708046A0890004A3
:1047B0000AD55FEAC80032306421B0FBF1F010F096
:1047C000070050EA090909E05FEA08103230642165
:1047D000B0FBF1F010F00F0050EA0909A4F80890BE
:1047E00005B0BDE8F0830000001001400014014056
:1047F000F3E9FFFFC9B2002904D0828952F40052C4
:10480000828104E082894DF6FF731A4082817047ED
:10481000CA05D20D828070470200002089B2B1F52E
:10482000007F13880B4202D00123180001E000230F
:104830001800C0B27047012000F03ABD30B4002229
:104840000F2311F00304E4B2A400A3401A000F4B9D
:10485000C9B28C1053F8243093430C4CC9B28D105C
:1048600044F82530094BC9B28C1053F82430C0B23B
:1048700011F00304E4B2A40010FA04F42343034C3F
:10488000C9B28D1044F8253030BC7047083801405B
:104890000021214A11008279002A36D01E4A12686E
:1048A00003689A431C4B1A601C4A126803689A43B7
:1048B0001A4B1A60027989180A6803681A430A6059
:1048C000174A126803689A43154B1A60154A126812
:1048D00003689A43134B1A604279102A0CD1104A8C
:1048E000126803681A430E4B1A600E4A1268036876
:1048F0001A430C4B1A600EE0074A110042798918DE
:104900000A6803681A430A6005E0027989180A6890
:1049100003689A430A607047003C0140043C014030
:10492000083C01400C3C014070B4002300210F22E0
:10493000C478002C20D0164C246814F4E064D4F51C
:10494000E064240A2300D3F104042100DA4044780F
:104950008C4023008478144023431B010D4C0578C0
:104960002B550124057815F01F05AC400A4D06783B
:10497000761145F8264009E00124057815F01F0559
:10498000AC40064D0678761145F8264070BC70475D
:104990000CED00E000E400E000E100E080E100E078
:1049A000002806D143F2DB018200B2F1C04211605F
:1049B00005E043F2D2018200B2F1C04211607FF003
:1049C00070418200B2F1C04251607FF07041DFF867
:1049D0001C2142F820107047416882681143C26868
:1049E0001143026911434269114382691143C2694B
:1049F0001143026A1143426A1143826A1143C26A37
:104A00001143026B114302689200B2F1C04211607F
:104A1000816808290BD101688900B1F1C04109689A
:104A200051F0400102689200B2F1C0421160416B46
:104A30000968426B526851EA0211426B926851EA6E
:104A40000221426BD26851EA0241426B126951EA7B
:104A50000251426B526951EA0261426B9269114301
:104A600002689200B2F1C0425160C16AB1F5804F54
:104A70001AD1816B0968826B526851EA0211826B0C
:104A8000926851EA0221826B126951EA0251826BEB
:104A9000526951EA0261826B92691143DFF84C203E
:104AA000036842F8231006E07FF07041DFF83C20F5
:104AB000036842F823107047C9B200290AD0820067
:104AC000B2F1C042126852F001028300B3F1C04358
:104AD0001A6009E08200B2F1C0421268044B1A4029
:104AE0008300B3F1C0431A6070470000040100A0C6
:104AF000FEFF0F0062F30F2262F31F42401810F016
:104B0000030308D0C91A1FD3DB0748BF00F8012DE3
:104B100028BF20F8022D130030B414461546103972
:104B200028BF20E93C00FAD8490728BF20E90C003B
:104B300048BF40F8042D890028BF20F8022D48BF47
:104B400000F8012D30BC7047C91818BF00F8012DBE
:104B5000CB0728BF00F8012D704700000168490805
:104B60004900016000210160002141600021816055
:104B70000021C1600021016121214161DFF8F811AC
:104B8000884204D13D21DFF8F421116085E0DFF88F
:104B9000F011884205D14FF47461DFF8E021116013
:104BA0007BE0DFF8E011884205D15FF47411DFF893
:104BB000CC21116071E0DFF8D011884205D15FF09F
:104BC0007461DFF8B821116067E0DFF8C011884236
:104BD00005D1DFF8BC11DFF8BC2111605DE0DFF822
:104BE000B811884205D1DFF8B411DFF8A8211160AF
:104BF00053E0DFF8AC11884205D1DFF8A811DFF8E7
:104C00009421116049E0DFF8A011884205D15FF0DE
:104C10003D51DFF8802111603FE0DFF890118842BC
:104C200004D13D21DFF88821116036E0DFF88411DE
:104C3000884205D14FF47461DFF8742111602CE0D3
:104C4000DFF87411884204D15FF47411584A11607E
:104C500023E05A49884204D15FF07461544A1160DC
:104C60001BE05749884203D14949564A116014E074
:104C70005549884203D14949524A11600DE05349D0
:104C8000884203D147494F4A116006E050498842A3
:104C900003D15FF03D514B4A1160704710B40022C0
:104CA00003681A004B4B1A400B68CC6823434C69CD
:104CB00023438C692343CC6923430C6A23434C6A06
:104CC00023438C6A23434C6B23438C6B23431A434B
:104CD000026043691A00D208D200CB6A0C6B2343EE
:104CE0001A4342610B6943604B6883608B68C36001
:104CF00010BC7047C9B2002904D0026852F001020A
:104D0000026003E00268520852000260704789B2F4
:104D10004160704730B4020000200024234DAA42B5
:104D200002D22D4D2B0001E02C4D2B008D0002D521
:104D30005D682C0001E01D682C00294D2C400C42C0
:104D400002D00125280001E000252800C0B230BCB7
:104D50007047164B984202D21F4B1A0001E01F4BBE
:104D60001A008B0003D51E4B0B40D36002E01C4B96
:104D70000B409360704700001060024008600240E2
:104D8000286002404060024058600240706002406B
:104D90003D0000200C60024088600240400F00206F
:104DA000A060024000003D20B86002401064024054
:104DB0000864024028640240406402405864024093
:104DC000706402400C64024088640240A0640240A7
:104DD000B86402403F801CF0006002400064024062
:104DE0007D0F7D0F00203949086000203849086098
:104DF0001F203849086000203749086000203749E3
:104E00000860002036490860002036490860704775
:104E100000212E4A1268344B1A402C4B1A602B4A40
:104E200012681100314A1140028843881A4383886E
:104E30001A43C3881A4303891A4343891A4383894F
:104E40001A431143214A11607047C0B2002806D0AE
:104E50001E49096851F480411C4A116005E01B4954
:104E6000096831F48041194A11607047418802880D
:104E700051EA02411A4A1160C188828851EA02410E
:104E8000184A11607047C0B2002806D00F4909685F
:104E900051F001010D4A116005E00C49096849080B
:104EA00049000A4A11607047C0B2002806D007497D
:104EB000096851F00401054A116005E003490968D9
:104EC00031F00401014A11607047000000000550F4
:104ED0000C00055014000550180005501C0005502A
:104EE0002000055024000550FEBFFFFF0DF0FFFF1E
:104EF000002840F10980F446404200F005F850F0E7
:104F000000406047002800BF0AD0B0FA80F1884016
:104F1000D1F19D01C905020672F1004241EB10205A
:104F200070470000FF2212EAD05C1DBF12EAD15385
:104F3000944593422BE09C44D30780EA01021A4037
:104F400043EA002043EA0121A1FB0030410038BFC1
:104F500040007CF17F010BDBFE294ADA5B0842EA64
:104F6000C15153EA006373F1004C51EB10207047BC
:104F7000D1F1080CDCF120012FDB5B0810FA01F104
:104F80000B4373F1004120FA0CF0504170479445F7
:104F90001CBF02EAD153934280EA010202F00042B0
:104FA0001DD0400019D0490017D05BB9634514D01B
:104FB0000902B1FA81F39940BCEB030CC00140F047
:104FC0000040C1E70002B0FA80FC10FA0CF0B3EB2D
:104FD0000C0CC90141F00041B6E7100070474000D9
:104FE0000AD0490008D010F1807F94BF11F1807F72
:104FF00002E042F0FF407047D043704790EA010F53
:1050000044BF81F0004100F043B800BF421A3CBFEA
:10501000801A89184FF0004CC0F3C752FF2A24D0E1
:10502000C1F3C75313B3D21AD2F1190327DD4CEAE7
:1050300001214CFA03F321EA0303D140C20D4CEAEB
:105040000020401834BF20EA0C004CEA5000D20582
:1050500053EA006373EB0C0C52EB1020420012F188
:10506000807F38BF7047C00DC0057047490212BF2E
:105070009A4200EB5120F8E7D2F11703D9D57047D7
:1050800090EA010F44BF81F00041FFF7BFBF00BFAE
:10509000431A4FF000423EBF5340C01AC91800BF28
:1050A000D3095FEAD05C13EB400F34BFB3EB410F81
:1050B00040E07CEBD1530CD342EA012122D8D1EB62
:1050C000402009D3400A28BF5FEA500140EBCC5092
:1050D0007047401A15D04002B0FA80F2521C90403E
:1050E000400A4FEA3C23B3EB026384BF00EB73003A
:1050F00007E040F400001A16DB07C2F10102D040BD
:1051000018437047182BFCDC31FA03F202FA03F360
:10511000591A38BF42F00102D2EB40203CBF400098
:10512000ACF1010C5FEACC5CC20572F100414CEBC2
:105130005020704713EB400F0FD24B0009D0ACEB5F
:10514000D153022B03DB4902172BDDDD704791435E
:10515000401A4300D5D10020704713EB410FD0D344
:105160006FF00000704700005FF0FF0C1CEAD051A8
:1051700014BF614506E0C110400721F0E04101F194
:105180006051704779B900F0004100020AD0B0FACE
:1051900080FC00FA0CF001F16051A1EB0C5101EB25
:1051A000D0214005704741020CBF40F4E0016FF090
:1051B00000010020704700004FEAF17CBCF1E04C98
:1051C0002CBFBCF5001F11E05FEA4C0C34BFBCF1F2
:1051D0007F5F2EE05FEA9C0C4FEA0C1C4FEA3C0C10
:1051E000C10071F100414CEB50707047C90241EAB7
:1051F0005051C00218BF41F0010141F000414FEA97
:105200006C50C0F10900212810D240EACC7CCCF1CE
:10521000200C11FA0CF070F10040CCF1200C21FAB6
:105220000CF00CF0004C40EB0C0070474FEACC70D7
:105230007047490011F5001F04D84FEACC10FF3029
:10524000C0057047C81770474FF0807C1CEB400FBB
:1052500094BF1CEB410F05E040EA010C5FEA4C0CE7
:1052600001D28842704718BF814270474100090E41
:105270007F3915D4D1F11F0114D4400007D2C001E9
:1052800040F00040C84048BF6FF000407047C00188
:1052900040F00040C8404CBF4FF0004040427047D3
:1052A0000020704700424FF0004058BFC043704795
:1052B00080B5C046C046024A11001820ABBEFBE7CD
:1052C00026000200000000000000000000000000B6
:1052D00000000000100000000000000000000000BE
:1052E00000000000110000000000000000000000AD
:1052F000000000001300000000000000000000009B
:10530000000000002000000000000000000000007D
:10531000000000002100000000000000000000006C
:105320000000000028000000000000000000000055
:105330000000000029000000000000000000000044
:10534000000000002A000000000000000000000033
:10535000020000002B000000000000000000000020
:10536000020000002C00000000000000000000000F
:10537000FFFFFFFF2D000000000000000000000004
:1053800014000000370000000000000000000000D2
:1053900001000000380000000000000000000000D4
:1053A00000000000390000000000000000000000C4
:1053B00000000000DA000000010000000000000012
:1053C00001000000DB000000010000000000000000
:1053D00001000000DC0000000100000000000000EF
:1053E00001000000B4000000000000000000000008
:1053F00004000000B50000000000000000000000F4
:1054000004000000B60000000000000000000000E2
:1054100004000000B80000000000000000000000D0
:1054200001000000B70000000100000000000000C3
:1054300001000000D100000000000000000000009A
:1054400000000000D000000000000000000000008C
:1054500000000000D4000000000000000000000078
:1054600001000000D5000000010000000000000065
:10547000010000000000000000000000000000002B
:1054800000000000330000000000000000000000E9
:105490000300000000000000000000000000000009
:1054A00000000000250000000000000000000000D7
:1054B00001000000FFFFFFFF0000000000000000EF
:1054C00000000000FFFFFFFF0000000000000000E0
:1054D00000000000FFFFFFFF0000000000000000D0
:1054E00000000000FFFFFFFF0000000000000000C0
:1054F00000000000FFFFFFFF0000000000000000B0
:1055000000000000FFFFFFFF00000000000000009F
:1055100000000000FFFFFFFF00000000000000008F
:1055200000000000FFFFFFFF00000000000000007F
:1055300000000000FFFFFFFF00000000000000006F
:1055400000000000FFFFFFFF00000000000000005F
:1055500000000000B000000000000000000000009B
:1055600000000000B100000000000000000000008A
:105570000000000009000000010000000100000020
:105580000400000001000000000000000000000016
:105590000000000004000000010000000100000005
:1055A00003000000300000000000000000000000C8
:1055B00002000000120000000000000000000000D7
:1055C00000000000360000000000000000000000A5
:1055D000010000003A000000000000000000000090
:1055E0000100000022000000000000000000000098
:1055F0000000000023000000000000000000000088
:105600000000000002000000000000000000000098
:105610000000000003000000000000000000000087
:105620000000000025000000000000000000000055
:1056300000000000950000000000000000000000D5
:1056400000000000940000000000000000000000C6
:1056500000000000A90000000000000000000000A1
:1056600000000000A6000000000000000000000094
:1056700000000000A7000000000000000000000083
:1056800000000000AE00000000000000000000006C
:1056900000000000AF00000000000000000000005B
:1056A00000000000150000000000000000000000E5
:1056B0000200000075000000000000000000000073
:1056C000020000005C00000000000000000000007C
:1056D000FFFFFFFFCE000000000000000000000000
:1056E00014000000AB0000000000000000000000FB
:1056F0000100000038000000000000000000000071
:105700000000000039000000000000000000000060
:1057100000000000DA0000000100000000000000AE
:1057200001000000DB00000001000000000000009C
:1057300001000000DC00000001000000000000008B
:1057400001000000B40000000000000000000000A4
:1057500004000000B5000000000000000000000090
:1057600004000000B600000000000000000000007F
:1057700004000000B800000000000000000000006D
:1057800001000000B7000000010000000000000060
:1057900001000000CD00000000000000000000003B
:1057A00000000000CC00000000000000000000002D
:1057B000000000007C00000000000000000000006D
:1057C000010000007D00000001000000000000005A
:1057D00001000000A8000000000000000000000020
:1057E00002000000AA00000000000000000000000D
:1057F00004000000BC0000000000000000000000E9
:105800000300000000000000000000000000000095
:1058100001000000D10000000000000000000000B6
:1058200000000000D20000000000000000000000A6
:1058300000000000E0000000000000000000000088
:1058400000000000EE00000000000000000000006A
:1058500000000000D6000000000000000000000072
:1058600000000000D7000000000000000000000061
:1058700000000000AA00000000000000000000007E
:1058800004000000CA00000000000000000000004A
:1058900003000000200000000000000000000000E5
:1058A0000100000081000000000000000000000076
:1058B00002000000FFFFFFFF0000000000000000EA
:1058C00000000000FFFFFFFF0000000000000000DC
:1058D00000000000FFFFFFFF0100000000000000CB
:1058E00000000000FFFFFFFF0000000000000000BC
:1058F00000000000FFFFFFFF0000000000000000AC
:1059000000000000FFFFFFFF00000000000000009B
:1059100000000000FFFFFFFF00000000000000008B
:1059200000000000FFFFFFFF00000000000000007B
:1059300000000000FFFFFFFF00000000000000006B
:1059400000000000FFFFFFFF00000000000000005B
:1059500000000000FFFFFFFF00000000000000004B
:1059600000000000FFFFFFFF00000000000000003B
:1059700000000000FFFFFFFF00000000000000002B
:1059800000000000FFFFFFFFFEFFFFFFFCFFFFFF27
:10599000F8FFFFFFF0FFFFFFEFFFFFFFCFFFFFFF6D
:1059A0008FFFFFFF0FFFFFFFFFFEFFFFFFFCFFFF6B
:1059B000FFF8FFFFFFF0FFFFFFEFFFFFFFCFFFFF4D
:1059C000FF8FFFFFFF0FFFFFFFFFFEFFFFFFFCFF4B
:1059D000FFFFF8FFFFFFF0FFFFFFEFFFFFFFCFFF2D
:1059E000FFFF8FFFFFFF0FFFFFFFFFFEFFFFFFFC2B
:1059F000FFFFFFF8FFFFFFF0FFFFFFEFFFFFFFCF0D
:105A0000FFFFFF8FFFFFFF0F0000000001000000FD
:105A100003000000070000000F000000100000005D
:105A20003000000070000000F000000000010000E5
:105A30000003000000070000000F0000001000003D
:105A4000003000000070000000F0000000000100C5
:105A5000000003000000070000000F00000010001D
:105A600000003000000070000000F00000000001A5
:105A700000000003000000070000000F00000010FD
:105A80000000003000000070000000F0AAAAAAAADE
:105A900055555555433A5C55736572735C4564774B
:105AA0006172645C446F63756D656E74735C4769A5
:105AB000744875625C5046455F323032315C6D6FC0
:105AC00064756C65735C6472765F676C63642E6387
:105AD000000000002A2A2A2A2A2A2A2A2A2A2A2ACE
