:020000040800F2
:10000000B804002075620008B1610008B3610008FF
:10001000B5610008B7610008B96100080000000080
:10002000000000000000000000000000BB610008AC
:10003000BD61000800000000BF610008C161000848
:10004000E1620008E5620008E9620008ED6200086C
:10005000F1620008F5620008F9620008FD6200081C
:100060000163000805630008096300080D630008C8
:100070001163000815630008196300081D63000878
:100080002163000825630008296300082D63000828
:100090003163000835630008396300083D630008D8
:1000A0004163000845630008496300084D63000888
:1000B0005163000855630008596300085D63000838
:1000C0006163000865630008696300086D630008E8
:1000D0007163000875630008796300087D63000898
:1000E0008163000885630008896300088D63000848
:1000F0009163000895630008996300089D630008F8
:10010000A1630008A5630008A9630008AD630008A7
:10011000B1630008B5630008B9630008BD63000857
:10012000C1630008C5630008C9630008CD63000807
:10013000D1630008D5630008D9630008DD630008B7
:10014000E1630008E5630008E9630008ED63000867
:10015000F1630008F5630008F9630008FD63000817
:100160000164000805640008096400080D640008C3
:100170001164000815640008196400081D64000873
:10018000216400082DE9F14FAEB0924604910021A0
:10019000389A8DF8432099460D910BE01AF8011B0F
:1001A00004982E9A90470028049000F05F860D98DE
:1001B000401C0D909AF8000058B12528EED100217E
:1001C00000220791089209910A920B910C9200204B
:1001D00004E00D9800F04CBE40F001001AF8011F39
:1001E0002029F9D023290CD02B2904D02D2905D082
:1001F000302909D00BE040F00200EFE740F00400A6
:10020000ECE740F00800E9E740F01000E6E72A29B3
:100210000FD1D9F8002052F8041BC9F8002000299A
:100220000F9103D549420F9140F004000AF1010AF1
:1002300014E00F92DFF8403C0AE00F99994205DA8A
:1002400001EB810402EB4402303A0F920AF1010AF9
:100250009AF80020A2F130010A29EED39AF8001092
:100260002E2903D04FF0FF320E922AE01AF8011F18
:100270002A2909D1D9F8001051F8042BC9F8001027
:100280000E920AF1010A1CE02D290CBF0AF1010AA5
:10029000002100220E92DFF8E04B0CE00A0008D1AA
:1002A0000E9AA24205DA02EB820503EB4503303BCE
:1002B0000E930AF1010A9AF80030A3F130020A2ADB
:1002C000ECD3ADF840000FF6B4309AF8001000F00F
:1002D00001FF08B11AF8010B8DF842009DF84200A9
:1002E000682805D19AF8000068280CD1622106E040
:1002F0006C2804BF9AF800006C2804D171218DF895
:1003000042100AF1010A12A806901AF801BBBBF1CB
:1003100025012CD01C3900F0D781091F022940F299
:10032000D381133900F0D484093900F0CD81891EBE
:1003300000F06985491E00F01685491E022940F229
:10034000C381091F00F00F85491F00F03281491E4B
:1003500000F0BE84491E00F0D880C91E0DD0891E51
:1003600000F0B684C91E00F0B38400F057BD252309
:100370008DF84830012100F05CBDD9F8000050F83C
:10038000044BC9F80000002C059440F0AB809DF8A8
:100390004300002800F0A1804FF0FF340FF6E42066
:1003A00000F0A8FE201A40F0618500F043BD012353
:1003B0006A4602A9304600F035FE002840F0568516
:1003C0006D1EF4D12E96079D12AF75B12E9E17F8B3
:1003D000012B02A9304600F015FE002801D46D1E45
:1003E000F5D100282E9640F041850A9D3020002D41
:1003F0008DF800000CDD2E9E01236A4602A93046CE
:1004000000F010FE002840F031856D1EF4D12E96CC
:10041000059F089D75B12E9E17F8012B02A9304645
:1004200000F0F0FD002801D46D1EF5D100282E96B5
:1004300040F01C850B9D3020002D8DF800000CDD58
:100440002E9E01236A4602A9304600F0EBFD0028EB
:1004500040F00C856D1EF4D12E9605980899099DE3
:10046000471875B12E9E17F8012B02A9304600F0EF
:10047000C9FD002801D46D1EF5D100282E9640F04C
:10048000F5840C9D3020002D8DF800000CDD2E9E93
:1004900001236A4602A9304600F0C4FD002840F05E
:1004A000E5846D1EF4D12E969DF8400041077FF53E
:1004B00081AE2020002C8DF800007FF77BAE2E9DB2
:1004C00001236A4602A9284600F0ACFD002840F04E
:1004D000CD84641EF4D12E956CE60FF6A8300590FD
:1004E00000F0A8BC0E9D002D04D5204600F022FE91
:1004F000044607E02A46204600F038FE002814BFD4
:10050000041B2C46089400F095BCD9F8001051F853
:10051000040BC9F8001020F00004002121F0FF3581
:1005200012ABCDE902450593DDE9022306993C248F
:1005300013B90AB90E98A8B102F00F053035641E40
:10054000EEB23A2E08DA120942EA03721B090D557F
:1005500008BF002A02D105E02735F4E705980D19F8
:10056000A842E9D308190590C4F13C020E980892FC
:1005700082420ADABDF84010821A4FF6EF7001404D
:100580000A92ADF8401000F055BC002840F15284AA
:100590009DF8400000F01400102840F04B840F9BA1
:1005A00007990A985B1A1B1A9A1A002A40F3428488
:1005B0008CE39DF8430020B14FF0FF340FF69420F8
:1005C000EEE69DF84200622860D0682817D06A28BD
:1005D0003FD06C2806D0712847D074282CD07A28B8
:1005E0001DD062E0D9F8001051F8040BC9F80010D2
:1005F000002866D14FF0FF340FF67020D0E6D9F80E
:10060000001051F8040BC9F8001020B94FF0FF3466
:100610000FF65820C4E60D99018000F00BBCD9F804
:10062000001051F8040BC9F80010002849D14FF010
:10063000FF340FF63820B3E6D9F8001051F8040B58
:10064000C9F8001000283CD14FF0FF340FF61C20F1
:10065000A6E6D9F8001051F8040BC9F8001080B9CB
:100660004FF0FF340FF604209AE6D9F8001051F845
:10067000040BC9F8001020B94FF0FF340FF6EC104E
:100680008EE60D9AD317C0E90023D3E3D9F8001002
:1006900051F8040BC9F8001020B94FF0FF340FF6E1
:1006A000CC107DE60D990170C4E3D9F8001051F823
:1006B000040BC9F8001020B94FF0FF340FF6AC104E
:1006C0006EE60D990160B5E3D9F80020D21D22F045
:1006D0000702C9F80020D2E900010832C9F8002059
:1006E000CDE90201C80F02D007982D210AE0BDF81C
:1006F0004000810702D507982B2103E0C00705D5EC
:100700000798202112AA1154401C079012A807999B
:10071000DDE9024543184BF020006128059321AE26
:100720000BD00E98002802D506200E9005E001BFE0
:100730004BF02000672801210E91DDE902014800FD
:100740004015401C0A460DD109030BD0ABF16107DF
:1007500003201A2F089002D20FF62C110DE00FF68D
:100760002C110AE070B912030CD1ABF16107032020
:100770001A2F08901CD30FF61C110322184600F004
:1007800021FD57E3DDE902016A4600F06FFDCDE986
:1007900002014BF02000612811D105983021017031
:1007A000821CBBF1610F05920CBF7821582102E039
:1007B0000FF6DC01E1E741700798801C0790DDE946
:1007C000020120F0000231F0004308BF002A02D1EC
:1007D0000025002445E14BF02008B8F1610F40F0FE
:1007E00095800E98002847BF21210191401C01905F
:1007F000019F7F1C2046294600220023DDE9024597
:1008000000F06CFD00998DF8842038BF85F000451C
:10081000091F002F00910DF1850034DD06462046AA
:1008200029460022002300F073FD2BD21C2200F089
:1008300089FD04460D4600F023FEFF1F002F804671
:1008400009DD00F039FE02460B462046294600F03D
:1008500003FF04460D46F01D0721B8F1000F0CDD23
:10086000491E5EBF08F00F0200F8012D4FEA28185C
:10087000F3D502E0002200F8012D491EFAD5C61D6D
:10088000002FCCDC30460DF18501401A0199054658
:100890008842C8BF0D46002D0DF185062FD4854234
:1008A00006DA0DF18500415D0829A8BF0F2000DAA6
:1008B0000020294621AA0A4400E06D1E12F80139E1
:1008C000491E8342F9D00F2804D10DF18500425C06
:1008D000521C4254002904D50098001D21AE6D1C05
:1008E0000090681E0BD431180A783032D3B23A2BFC
:1008F000A4BF5A443A3A401E01F80129F4D50E9893
:10090000002840F1AD80691E0E91A9E00099DFF842
:10091000E42647F29750414391FBF2F2009225F012
:100920000045C2F10702002A04DD2046294600F0F6
:100930003DFB0BE052420020DFF8BC1600F036FB16
:1009400002460B462046294600F0F8FE0446B8F160
:10095000660F0E9806BF009F0A3706273F18142F10
:10096000C8BF142730208DF884000D460DF1850096
:1009700000E03046002F35DD06462046294601F0CE
:1009800001F801460A4606F1080304200A26B2FBD4
:10099000F6F606EB860EA2EB4E02303203F8012C7F
:1009A0000A22B6FBF2F202EB820EA6EB4E063036BE
:1009B000401E03F8026DE9D1083F002F03F108063D
:1009C000D7DD084600F0F0FF02460B4620462946D8
:1009D00000F042FE0022DFF8243600F0F3FF044668
:1009E0000D46CAE70DF18501401A0DF1850604E0B8
:1009F0000099491E401E0091761C31783029F7D0AD
:100A0000B8F1660F02D10099491C04E0B8F1650FF6
:100A10000CBF012100210E9D4D19A842B8BF451EF3
:100A2000002D1DD4854204DA705D3428C8BF3920FA
:100A300000DC30202946721E531800E06D1E13F8AA
:100A40000149491E8442F9D0392802D1705C401C0A
:100A50007054002904D50098401C16466D1C009067
:100A6000009C28B20E9F002802DC01250FF22866A8
:100A70004BF02000662808BF641C15D067280FFAC9
:100A800084F841D118F1040F44DBB84542DA9DF8EF
:100A90004000641C010703D428B2B842D8BF0746FF
:100AA00020B23F1A48BF00270FFA84F8B8F1000FB0
:100AB00000F3AF800898411C0891302205990A5430
:100AC000002F03DC9DF84000010705D50898411C64
:100AD00008912E2205990A5417EB080FB8BF7C42E3
:100AE00020B2C4192AB2414294420B91B8BF2546A4
:100AF000059B08982DB209952A463146184400F006
:100B000061FB641B0C94CCE0BBF1610F15D14FF07D
:100B1000700B17E028B2B84204DA9DF840100A07BB
:100B200058BF07467F1E48BF0027BBF1670F14BFA1
:100B30004FF0450B4FF0650B04E0BBF1410F08BFD0
:100B40004FF0500B0898411C0891002F059916F89A
:100B5000012B0A5403DC9DF84000010719D50898C1
:100B6000411C08912E2205990A54002F11DD6D1E9B
:100B700028B287420598089BB8BF3D462AB2314645
:100B8000184400F01FFB08982DB228187F1B08900E
:100B90000B97059808990844B8F1000F80F800B049
:100BA00003D42B224270821C04E02D214446417064
:100BB000821C644200212BAB20460AE004460A2036
:100BC00094FBF0F000EB8005A4EB450403F8014B27
:100BD000491C00B20028F1DC012906DC4BF02000A2
:100BE000652804BF302002F8010B00292BAB08D187
:100BF000302002F8010B06E0491E585C303002F844
:100C0000010B0029F8DC059908980844121A09928A
:100C100047E028B221B288421BDA0598089B2AB225
:100C20003146184400F0CEFA08992DB2691808919F
:100C3000A8EB0500002F0B9003DC9DF84000020795
:100C400005D5059A2E2050540999491C09910C97F5
:100C500027E00598089B22B23146184400F0B2FA0A
:100C600008982D1B4044002F089003DC9DF840108D
:100C70000A0704D5411C08912E2205990A5428B26E
:100C800087420598089BB8BF3D462AB206EB08018B
:100C9000184400F097FA08982DB228187D1B089088
:100CA0000B959DF8400000F01400102840F0C28021
:100CB000079A08990B988A18099982180C988A182B
:100CC00082180F98824280F2B580821A0A92B1E0AF
:100CD0009DF84200622808D068280ED06A2814D0F7
:100CE0006C281FD0712810D01CE0D9F8001051F8E2
:100CF000040BC9F80010C0B21AE0D9F8001051F87E
:100D0000040BC9F8001080B212E0D9F80020D21DFF
:100D100022F00702C9F80020D2E900010832C9F820
:100D2000002006E0D9F8001051F8040BC9F80010B3
:100D30000021CDE902019DF8400001075AD5DDE907
:100D40000223002B08BF002A54D04BF02000782843
:100D500050D1079812A930220A54401C431C079313
:100D600001F800B046E09DF84200622808D06828EB
:100D70000ED06A2814D06C281FD0712810D01CE027
:100D8000D9F8001051F8040BC9F8001040B21AE06D
:100D9000D9F8001051F8040BC9F8001000B212E0A5
:100DA000D9F80020D21D22F00702C9F80020D2E9AC
:100DB00000010832C9F8002006E0D9F8001051F807
:100DC000040BC9F80010C117CDE90201002902D5B2
:100DD00007982D210AE0BDF84000810702D5079849
:100DE0002B2103E0C00705D50798202112AA115432
:100DF000401C079012A807990144059102A8594682
:100E000000F04EF816E001200790D9F8000050F8E5
:100E1000041BC9F800008DF848100BE025210122C1
:100E2000BBF1000F8DF84810079203D08DF849B040
:100E3000022107910F9A07980A990C9C121A089898
:100E4000521A0B99121A0998521A121A9DF8400058
:100E5000141B41073FF5B7AA2020002C8DF8000095
:100E60007FF7B1AA2E9E2546FFF7A1BA4FF0FF30BB
:100E70002FB0BDE8F08F0000CBCCCC0C686A6C744E
:100E80007A4C00007072696E74665F733A2062611A
:100E90006420257320617267756D656E74000000B3
:100EA0002DE9FC4304466F29256908BF082605D0B3
:100EB00041F02000782814BF0A2610263C27D4E9E8
:100EC0000023642918BF69299046994605D1002B53
:100ED00003D5D8F1000869EB4909B9F1000F08BF43
:100EE000B8F1000F0CD1206B50B9082E3AD194F80C
:100EF0003800010736D530203B2785F83B0031E02C
:100F00008DF80010404649463246F31700F030FE97
:100F10003032D0B27F1E3A2801970EDAEA554046A9
:100F200049463246F31700F023FE80465FEA010986
:100F300008BFB8F1000F05D108E09DF800001218B5
:100F4000513AEBE7E068E9198842DBD3082E09D172
:100F500094F83800010705D5E85D302802D07F1EDF
:100F60003020E855C7F13C02A261E919E160206B2D
:100F7000824208DA821A22624FF6EF70218F014016
:100F80002187BDE8F38300280ED594F8380000F0DF
:100F90001400102808D1636B6169206A5B1A1B1A60
:100FA0009A1A002AC8BF2262BDE8F3832DE9D04314
:100FB00006460F4614464FF00008DFF8449012E052
:100FC000E00707D542464B463046394600F0FAFC6A
:100FD00006460F464046494642464B4600F0F2FC64
:100FE000641080468946002CEAD130463946BDE877
:100FF000D0830000A08601000000F03F84D7974115
:101000000000244010B503460C461146A0689847DE
:10101000A06020B1E06A401CE062002010BD4FF0EB
:10102000FF3010BDF8B505460E4617461C46002099
:101030005CB117F8011BB068A847B06030B1F06A26
:10104000401CF0620020641EF3D1F2BD4FF0FF306F
:10105000F2BD00007072696E74665F733A20256E8F
:1010600020646973616C6C6F776564007072696E7F
:1010700074663A2062616420256E20617267756D26
:10108000656E7400000000006E616E004E414E00FF
:10109000696E6600494E4600300030B501688468CC
:1010A0004218416802EB5103C90703D54C4401E0E3
:1010B000491C08D19A4218BF12F9011B01D10C300A
:1010C00030BD12F8015B002904F8015BF0D4491E21
:1010D000F7D5EFE7C9B202788A421AB11CBF10F8FF
:1010E000012FF9E718BF002070470268531C036006
:1010F0001170704780B500B906A005490B681BB197
:1011000022220021984701E000F04AFE222002BD81
:10111000AC000020636F6E73747261696E74206836
:10112000616E646C65723A20626164206D657373F0
:101130006167650000F10103810704D010F8011B0D
:10114000820781B1FAD10268A2F10131914311F015
:10115000803104BF50F8042FF6E709BAB1FA81F1E3
:1011600000EBD100401CC01A70470000C9B28307D1
:1011700006D0521E22D310F8013B9942F7D11FE04E
:10118000083A13D302F1040241EA012141EA014184
:1011900050F8043B121F21BF4B40A3F1013C2CEA45
:1011A000030C1CF0803FF3D0C9B2001F083210F8C6
:1011B000013B521E28BF91EA030FF8D818BF012047
:1011C000401E704762B38B0708D0521E11F8013BD6
:1011D00000F8013B00F024808B07F6D1830740F034
:1011E000208000BF103A07D330B4B1E83810103A6D
:1011F000A0E83810F9D230BC530724BFB1E808107A
:10120000A0E8081044BF51F8043B40F8043BD20763
:1012100024BF31F8022B20F8022B44BF0B78037057
:101220007047121F17D35B0009D151F8043B20F817
:10123000023B1B0C121F20F8023BF6D20BE051F8C8
:10124000043B00F8013B1B0A20F8023B1B0C121F59
:1012500000F8013BF3D238BF121D521E24BF11F813
:10126000013B00F8013BF8D87047000010B5144668
:1012700000F002F8226010BDC1F30A5343B14A00E6
:1012800012F5001F28D2A3F2FE32A1EB02517047E3
:1012900050EA410C20D001F0004C31EA0C01B1FAC7
:1012A00081F204BFB0FA80F3D2180B3AB2F12003F6
:1012B0002CBF00FA03F1914041EA0C013EBFC2F19C
:1012C000200C20FA0CF319439040524240F2FD33B7
:1012D000D21A01EB035170470022704741EA030C18
:1012E00050EA4C0C52EA0C0C4FF4001C09D307D006
:1012F0001CEB410F9CBF1CEB430F8B4208BF82428B
:1013000070471CEB430FFBD8994208BF90427047CF
:1013100041EA030C50EA4C0C52EA0C0C4FF4001C4E
:1013200009D307D01CEB410F9CBF1CEB430F994224
:1013300008BF904270471CEB410FFBD88B4208BF9F
:1013400082427047124254D440F2FF7C1CEA11538F
:101350000FD0634531D09B1863453CBF01EB025170
:10136000704701F0004141EA0C510020AFF30080CA
:10137000704750EA410320D001F0004C91EA0C0183
:101380001CD0B1FA81F30B3B9A420DD9D21A994085
:1013900051EA0C01C3F1200C20FA0CFC6144984086
:1013A000531C40F2FF7CD7E7914041EA0C01C2F1A7
:1013B000200C20FA0CF3194390407047B0FA80F3E8
:1013C0001533202BE0D3202AEED3203A203B9A423B
:1013D00009D9D21A00FA03F141EA0C010020531C8A
:1013E00040F2FF7CB8E700FA02F141EA0C0100206C
:1013F0007047524240F2FF7C1CEA11530DD0634506
:10140000DBD0B2EB030C3CBFA1EB025170470CF1F7
:10141000010221EA035141F4801150EA410CCCD081
:1014200001F0004C352A27DC30B481EA0C01B2F11E
:10143000200309DAC2F12003044601FA03F5D04083
:101440002843D1409C400CE0C3F12002450020FA23
:1014500003F418BF44F0010421FA03F091400C4357
:10146000002174F1004550F1000051EB0C012442C1
:1014700030BC7FF47BAF70476146002076E7000008
:10148000C1F30A5340F21E42D31A0CDDCA0283F3A1
:10149000070342EA505242F00042DA4002EBE172A6
:1014A00082EAE17070476FEAE17203F2E13008B15D
:1014B00082F000407047000010F0004160B148BF6A
:1014C0004042B0FA80F29040D21CC2F5846241EAF8
:1014D000025202EBD02140057047000070B491EA3F
:1014E000030F4FF0004540F1BF806B40841A71EB51
:1014F000030604D26E40001BB141121973414FF430
:10150000001C1CEB410F34BF7CEB430683E00C0D49
:10151000A4EB1356362E00F37C80012E45EAC3233C
:1015200041DC43EA525312BFD20292025B08240507
:1015300045EAC12141EA5051D2EBC020994125D45E
:1015400007D1B0FA80F610FA06F162D000202036FA
:1015500008E0B1FA81F6B140C6F1200220FA02F2A9
:101560001143B0404FEAF474B4EB465434F0010632
:101570004FEA74040AD8D6F50016760D04F000443C
:10158000F04061FA06F25040F1404840C00A40EA9B
:10159000415021F0004128BF5FEA500550F10000A2
:1015A00044EBD12135E0DB0A45EAC121C90AB6F195
:1015B00020050EDD42EA0242120CC5F1200603FAB4
:1015C00006F6EB4042EA06056D42984161F10001E2
:1015D0000DE062FA06F5F240554063FA06FC82EA35
:1015E0000C02F3405A406D42904161EB030111F44B
:1015F000801F05D1641E620502D06D004041494143
:1016000021F48011430875F1004350F1000041EBD3
:10161000045170BC70471CEB410F15D223F00043FE
:1016200052EA43060BD04FEA4C0CBCEB410F04D8F6
:101630000C0D661E342EB7DDEBE7801A994150EA97
:10164000410608BF0021E4E708BF1CEB430F28BF99
:101650006FF00001DDE7000070B491EA030F4FF076
:1016600000457FF543AF6B40841A71EB030603D24C
:10167000001BB141121973414FF4001C1CEB410FC8
:1016800034BF7CEB430442E00C0DA4EB1356352E23
:101690004FDC45EAC323DB0A45EAC121C912B6F192
:1016A00020050DDD63FA05F6EB4086EA03051242DC
:1016B00018BF45F00105C01851F100010CD213E02C
:1016C00062FA06F5F2405540F3415A40B340F34008
:1016D0005A408018594107D349085FEA30005FEA51
:1016E000350528BF45F0010501F58011420875F167
:1016F000004250F1000041EB04514E0016F5001F6E
:1017000070BC38BF70470020090D090570471CEBFD
:10171000410F10D252EA43060BD0BCEB410F05D863
:101720000C0DAB43661E342EB6DD02E0AB438018D1
:10173000594170BC704770BC70470000F0B540F272
:10174000FF7581EA030C0CF0004C15EA11541DBF23
:1017500015EA1357AC42AF42E5E0BC41C1F31301B7
:10176000C3F31303801A994143F4801304D2641E17
:101770000018494180185941C90241EA5051B1FB52
:10178000F3F603FB1611A2FB0675D7EBC020A941A7
:1017900002D2761E80185941C90241EA5051B1FB6C
:1017A000F3FE03FB1E11A2FB0E75D7EBC020A9416F
:1017B00003D2AEF1010E80185941890241EA9051DD
:1017C000760546EA8E2EB1FBF3F603FB1611A2FB5B
:1017D0000675D7EB8020A94102D2761E80185941A8
:1017E000C90241EA50514EEA060EB1FBF3F603FB83
:1017F0001611A2FB0675D7EBC020A94102D2761EB6
:1018000080185941C90241EA5051B1FBF3F703FB7B
:101810001711A2FB0735D3EBC020A94167F10007E0
:101820000CBF004247F0010766F3D5274FEA1E318F
:10183000B80814F5806412DDBD0775F1004250EB65
:101840000E5051EB045111F5801F5CBF41EA0C01B1
:10185000F0BD4CF07F6141F0E0410020F0BDBD07DC
:101860006D0840EA0E5041F48011D4F10104B4F146
:1018700020060ADAC4F120060200E04001FA06F36D
:10188000E1401843B24015430EE0342C13DCC6F19E
:10189000200445EA40056D0820FA06F2154321FAB6
:1018A00006F0A1400D43002175F1004250F1000007
:1018B00051EB0C01F0BD00205FEA0C01F0BDCFB987
:1018C00092185B41B3FA83F704BFB2FA82F6BF19EC
:1018D0000B3FB7F120062FBF02FA06F3BB40C7F15A
:1018E000200622FA06F638BF3343BA401CB1E41989
:1018F000641E33E77F4231F00041B1FA81F404BF46
:10190000B0FA80F6A4190B3CB4F120062FBF00FA00
:1019100006F1A140C4F1200620FA06F638BF314393
:10192000A0403C1B1AE7AC421ABF05EA1357AF426E
:1019300012E050EA41061CBF52EA4306BFE750EAF4
:101940004107304661461CBF41EA0551F0BD52EAED
:10195000430C08BFC143F0BD00204FF4001616EB46
:10196000410F98BF16EB430F08BF16EB410F24BF82
:10197000C14305E016EB430F0CBF61464CEA05512D
:10198000F0BD0000400D40F21E4C40EAC120BCEB0F
:10199000115C40F0004003D48CF30701C84070474D
:1019A0006FEAE1707047000050B1B0FA80F18840F2
:1019B000C91CC1F58461090501EBD02140057047C0
:1019C0000146704730B540F2FF7C1CEA11541DBF40
:1019D0001CEA1355644565453FE0641981EA030C30
:1019E0006FF35F530CF0004C43F48013C90241F0D5
:1019F000004141EA505EC5021100A5FB0202002829
:101A00004FF00000EEFB01204FF00001E3FB052149
:101A100018BF42F00102401800214941E3FB0E01CA
:101A2000A4F580640D0302D292184041494154F15B
:101A3000010470DD450872F1004250F1000051EBE5
:101A40000451A1F5801102D441EA0C0130BD40F2ED
:101A5000FF7E4CEA0E51002030BD0CEA1355644560
:101A600018BF654581EA030C0CF0004C41D050EAE8
:101A7000410E1CBF52EA430E02E06146002030BD19
:101A800024422C441BD15FEA050EF6D0090302BFA5
:101A900001460020AEF1140EB1FA81F5AEEB05045B
:101AA00001FA05FE0C35C5F1200100FA05F5C84024
:101AB0004EEA000E6FF35F5343F480139CE733F05C
:101AC0000043B3FA83F504BFB2FA82FE75440B3DBE
:101AD000641BB5F1200E2FBF02FA0EF3AB40C5F127
:101AE000200E22FA0EFE38BF43EA0E03AA40641C01
:101AF0007CE750EA410E14BF52EA430E6FF000013A
:101B00004FF4001515EB430F8EBF194615EB410F2F
:101B10009DE7B4D830BDD4F10104B4F120050FDA4B
:101B2000C4F12005520828BF42F0010210FA05FE58
:101B300001FA05F57244E2BFE0402843E1400FE0BE
:101B4000352C9ADCC5F1200452EA400220FA05F255
:101B500018BF42F0010231FA05F0A1400A4300210A
:101B600072F1004250F1000051EB0C0130BD000059
:101B7000BBBBE1B1B2F5803F80F07E80022A1ED966
:101B80008C46B1FBF2F102FB11C31B0443EA104384
:101B9000B3FBF2FC02FB1C3380B240EA0343B3FB0D
:101BA000F2F002FB103240EA0C4000237047022A98
:101BB00005D98446B0FBF2F002FB10C270474AB16F
:101BC00005D100F0010249085FEA300070470022A9
:101BD0000023704700F0E8B80B000200002100204D
:101BE0007047904271EB030CF6D3B3F5803F2FD2D0
:101BF000F0B5B3FA83F7B1FA81F4A7F10F0E3D1BEC
:101C00005340CEF1200602FA0EF2F3415340B5F1F3
:101C10000F0746D80F3C2C444140C4F12006A04099
:101C2000F1414140B1FBF3F603FB1611A2FB06455F
:101C3000001BA94102D2761E8018594180EA010298
:101C400021FA0EF362FA0EF200215A403046F0BD3E
:101C500030B4B1FBF3FC03FB1C11A2FB0C45001BD1
:101C6000A94103D2ACF1010C8018594130BC0246A5
:101C70000B46604600217047B2F1807F65D3F0B516
:101C8000B2FA82F7B1FA81F4C7F10F063D1B22FACE
:101C900006F307F1110EF24120355A40B5F10F0756
:101CA000B8D94140C4F12006A040F1414140B1FB08
:101CB000F3FC03FB1C11A2FB0C45001BA94103D242
:101CC000BCF1010C801859410F2F12D30F3FC903EB
:101CD00041EA5041B1FBF3F603FB1611A2FB0645A6
:101CE000D4EBC030A94102D2761E8018594146EA91
:101CF000CC3C07B34140C7F12006B840F141414018
:101D0000B1FBF3F603FB1611A2FB0645001BA9412C
:101D100002D2761E8018594180EA010221FA0EF3A0
:101D2000C7F1200462FA0EF20CFA07F05A402CFABE
:101D300004F13043F0BD80EA010221FA0EF30021E4
:101D400062FA0EF260465A40F0BD8C46B1FBF2F1E9
:101D500002FB11C31B0243EA1063B3FBF2FC02FB5C
:101D60001C331B024CEA002043EA1063B3FBF2FC75
:101D700002FB1C331B024CEA002043EA1063B3FB56
:101D8000F2FC02FB1C331B024CEA002043EA106306
:101D9000B3FBF2FC02FB1C324CEA0020002370472C
:101DA000012000F003B800007047000080B5AFF3D9
:101DB0000080024A11001820ABBEFBE7260002009B
:101DC0000000000000000000000000000E11111BC8
:101DD00011111B15110E00000E1F1F151F1F151BC3
:101DE0001F0E0000000A1B1F1F1F1F0E0E04040001
:101DF00004040E0E1F1F1F0E0E040400040E0E0E10
:101E0000041F1F0E040E000004040E0E1F1F1F0EE1
:101E1000040E0000000000000006060000000000A4
:101E20001F1F1F1F1F19191F1F1F1F1F000000004A
:101E30000E0A0A0E000000001F1F1F1F11151511AA
:101E40001F1F1F1F00001C181406090909060000A7
:101E50000006090909060202070200000000040C3E
:101E60000C040404070300000C0A0E0A0A0A0E0EF2
:101E70000303000000000000150E110E1500000005
:101E800000000103070F0703010000000000080C19
:101E90000E0F0E0C0800000000040E1504040415BB
:101EA0000E04000000000A0A0A0A0A000A0A0000DA
:101EB000000E0B0B0B0B0A0A0A0A000000060901B0
:101EC00006090608090600000000000000000000E6
:101ED0000F0F000000040E15040404150E041F006B
:101EE00000040E15040404040404000000000404AB
:101EF000040404150E04000000000002040F040294
:101F00000000000000000004020F020400000000B6
:101F1000000000000001010F000000000000000AA6
:101F20000A1F0A0A0000000000000004040E0E1F31
:101F3000000000000000001F0E0E0404000000005E
:101F40000000000000000000000000000004040485
:101F500004040400040400000A0A0A0A0000000045
:101F600000000000000A0A1F0A0A1F0A0A000000F7
:101F7000000206090102040809060400000B0B0414
:101F8000040202020D0D00000002050505021509FC
:101F9000091600000C0C08040000000000000000FE
:101FA0000004020202020202020400000002040411
:101FB0000404040404020000000004150E0E1504BD
:101FC0000000000000000004041F040400000000E2
:101FD00000000000000000000606040200000000EF
:101FE000000F0000000000000000000000000000E2
:101FF00006060000000808040402020201010000B5
:10200000000E09090909090909070000000406056D
:1020100004040404040F0000000609090804020176
:10202000010F00000006090808060808090600005C
:1020300000080C0A0A090F0808080000000F010137
:102040000107080809060000000C02010709090938
:1020500009060000000F080808040402020200003C
:102060000006090909060909090600000006090910
:1020700009090E0804030000000000000606000025
:102080000606000000000000060600000606040226
:102090000000080402010102040800000000000022
:1020A000000F000F000000000000010204080804F7
:1020B00002010000000609090804040004040000ED
:1020C00000060909090D0D01010E000000060909AD
:1020D000090F090909090000000709090907090989
:1020E00009070000000609090101010109060000B5
:1020F000000709090909090909070000000F010182
:10210000010F0101010F0000000F0101010F01018A
:10211000010100000006090901010D09090600007E
:1021200000090909090F090909090000000E040442
:1021300004040404040E0000000E04040404040556
:10214000050200000009090505030505090900004D
:102150000001010101010101010F00000009090F47
:102160000F090909090900000009090B0B0D0D09E8
:102170000909000000060909090909090906000002
:10218000000709090907010101010000000609090A
:1021900009090909090604080007090909070305CF
:1021A00009090000000609090106080909060000DE
:1021B000001F0404040404040404000000090909C5
:1021C00009090909090600000009090909090A0A9B
:1021D00004040000000909090909090F09090000A0
:1021E0000009090906060609090900000011111174
:1021F0000A0A040404040000000F08040402020197
:10220000010F0000000602020202020202060000A4
:10221000000101020204040408080000000604048E
:10222000040404040406000000040A000000000086
:102230000000000000000000000000000000001F7F
:10224000060602040000000000000000000000007C
:1022500006080E09090E000000010101070909091D
:1022600009070000000000000E010101010E00003E
:10227000000808080E090909090E00000000000006
:102280000609090F010E0000000402020702020203
:1022900002020000000000000E090909090E0806EC
:1022A00000010101070909090909000000000400F3
:1022B00004040404040E00000000040004040404E8
:1022C00004040502000101010905030305090000DA
:1022D0000006040404040404040E000000000000CE
:1022E000090F09090909000000000000050B090990
:1022F000090900000000000006090909090600009C
:102300000000000007090909090701010000000099
:102310000E090909090E0808000000000D0A020252
:102320000202000000000000060902040906000085
:102330000000020207020202020600000000000084
:1023400009090909090E00000000000009090A0A2C
:102350000404000000000000090909090F09000039
:10236000000000000909060609090000000000003D
:1023700009090909090E0807000000000F080402F6
:10238000010F000000040202020102020204000028
:10239000040404040004040404040000000204040F
:1023A0000408040404020000000A05000000000004
:1023B000000000000004040A0A111111111F00009E
:1023C000000E0909090F090909090000000F0101A0
:1023D0000107090909070000000709090907090998
:1023E00009070000000F01010101010101010000C6
:1023F000000C0A0A0A0A0A0A0A1F1100000F01014A
:10240000010F0101010F000000151515150E15151E
:10241000151500000006090808060808090600004E
:10242000000909090D0D0B0B09090000060909092E
:102430000D0D0B0B09090000000909050503050531
:1024400009090000000E0909090909090909000024
:102450000009090F0F090909090900000009090904
:10246000090F0909090900000006090909090909F4
:1024700009060000000F09090909090909090000F6
:102480000007090909070101010100000006090907
:102490000101010109060000001F040404040404F2
:1024A0000404000000090909090E080809060000D3
:1024B00000040E151515150E040400000009090985
:1024C00006060609090900000009090909090909A0
:1024D000091F101000090909090E08080808000062
:1024E0000015151515151515151F000000151515E6
:1024F00015151515151F101000030302020E1212F8
:10250000120E000000090909090B0D0D0D0B00004A
:102510000001010101070909090700000006090877
:10252000080E0808090600000009151515171515ED
:1025300015090000000E0909090E0C0A090900001E
:102540000000000006080E09090E00000000080641
:102550000107090909060000000000000709070932
:1025600009070000000000000F0101010101000047
:10257000000000000C0A0A0A0A1F110000000000F7
:102580000609090F010E00000000000015150E15C8
:1025900015150000000000000609040809060000E7
:1025A0000000000009090D0B0909000000000402E9
:1025B00009090D0B090900000000000009050303CB
:1025C00005090000000000000E09090909090000C2
:1025D00000000000090F09090909000000000000BF
:1025E00009090F090909000000000000060909098E
:1025F00009060000000000000F0909090909000090
:1026000000001500000A00001500000A000A00156D
:10261000000A0015000A00150A150A150A150A1500
:102620000A150A150404040404040404040404043C
:102630000404040404070404040404040404040457
:1026400007040704040404040A0A0A0A0A0B0A0A13
:102650000A0A0A0A00000000000F0A0A0A0A0A0A07
:102660000000000007040704040404040A0A0A0A1C
:102670000B080B0A0A0A0A0A0A0A0A0A0A0A0A0ABA
:102680000A0A0A0A000000000F080B0A0A0A0A0ACE
:102690000A0A0A0A0B080F00000000000A0A0A0AC8
:1026A0000A0F0000000000000404040407040700EF
:1026B00000000000000000000007040404040404FB
:1026C00004040404041C00000000000004040404CA
:1026D000041F00000000000000000000001F0404B0
:1026E0000404040404040404041C04040404040492
:1026F00000000000001F00000000000004040404AB
:10270000041F040404040404040404041C041C043E
:10271000040404040A0A0A0A0A1A0A0A0A0A0A0A21
:102720000A0A0A0A1A021E00000000000000000047
:102730001E021A0A0A0A0A0A0A0A0A0A1B001F00CB
:1027400000000000000000001F001B0A0A0A0A0A1D
:102750000A0A0A0A1A021A0A0A0A0A0A00000000E9
:102760001F001F00000000000A0A0A0A1B001B0AC3
:102770000A0A0A0A040404041F001F0000000000E3
:102780000A0A0A0A0A1F00000000000000000000F8
:102790001F001F040404040400000000001F0A0AB4
:1027A0000A0A0A0A0A0A0A0A0A1E000000000000B1
:1027B000040404041C041C000000000000000000CD
:1027C0001C041C040404040400000000001E0A0A87
:1027D0000A0A0A0A0A0A0A0A0A1B0A0A0A0A0A0A48
:1027E000040404041F001F04040404040404040477
:1027F000040700000000000000000000001C0404AA
:10280000040404041F1F1F1F1F1F1F1F1F1F1F1F44
:102810000000000000001F1F1F1F1F1F07070707E2
:1028200007070707070707071C1C1C1C1C1C1C1C90
:102830001C1C1C1C1F1F1F1F1F1F0000000000006E
:102840000000000007090909090701010000000054
:102850000E010101010E0000000000001F0404042D
:10286000040400000000000009090909090E080716
:1028700000000000040E1515150E040400000000F1
:1028800009090606090900000000000009090909F4
:10289000091F1010000000000909090E08080000B7
:1028A0000000000015151515151F000000000000A0
:1028B00015151515151F1010000000000302060A5B
:1028C0000A0600000000000009090B0D0D0B0000B6
:1028D00000000000010107090907000000000000D6
:1028E00007080E080807000000000000091517156A
:1028F00015090000000000000E09090E090900007A
:10290000090F0101010F0101010F0000000A0A0077
:102910000609090F010E0000000609010107010167
:1029200009060000000000000E010701010E000072
:102930001104040404040404040E0000000A0A0044
:1029400006040404040E000006090909090E08081B
:10295000090600000000090609090909090E08070F
:102960000609090600000000000000000000000049
:10297000040E040000000000000000000004040039
:1029800000000000001C0404040405050604000007
:10299000001D1D05051F07050505000000090609A6
:1029A00009090909060900000000000E0E0E0E0EAE
:1029B0000000000000000000000000000000000017
:1029C0002DE9FE4305000E001400DFF8640A0078CC
:1029D000002802D1DFF85C0A01E0DFF85C0A290078
:1029E000C9B2090100EB0107DFF8500A00788DF841
:1029F0000000DFF84C0A006800286FD0012000F0CA
:102A0000F1FD2800C0B20A2811D00020DFF8301AEA
:102A10000860DFF8300A0068002804D5DFF8240ACF
:102A2000006800F057FE002000F0DCFD56E0022CAC
:102A30004FD33178701C027851EA02218946461C36
:102A4000DFF8000A006850F00040DFF8F81908606D
:102A5000DFF8F4090068002813D1DFF8E8090168FD
:102A60004846000A10F0F0000143C9F3C3100143C7
:102A70005FEAC92010F470400143DFF8C809016023
:102A80001DE0DFF8C00900684946C90811F470610B
:102A900008435FEA493111F4700108435FEAC93124
:102AA00011F470210843DFF89C1908600321DFF856
:102AB000940900F03EFE0020DFF888190860DFF876
:102AC0008809006890F00100DFF87C190860A41EF6
:102AD000ADE7002000F086FD0020F2E0386810F13C
:102AE000010F01D10220ECE0DFF844090078002852
:102AF00058D12800C0B21B2802D01D280CD096E067
:102B0000002231002E20FFF75BFF002200212F2042
:102B1000FFF756FF0020D4E0B1469DF8000010F00A
:102B20007F0099F8001050EAC1108DF8000099F864
:102B30000000C0B240089DF8001060F386118DF8C7
:102B4000001099F80000C0B280089DF8001060F3F2
:102B500045118DF8001099F80000C0B2C0089DF82A
:102B6000001060F304118DF800109DF8000010F0C3
:102B7000F70099F8011011F0010191F0010150EAFC
:102B8000C1008DF80000002269463020FFF718FFD1
:102B900003208DF8010000220DF101013120FFF723
:102BA0000FFF8EE02800C0B21C2806D01D280FD0D1
:102BB0001E282BD0282836D039E0B146002089F8CD
:102BC0000300002231002520FFF7FAFE002078E004
:102BD000B0464046017811F0F70101704046017897
:102BE00011F0FD0198F80020D2B2520812F0010253
:102BF00092F0010251EA4201017018F102000178DD
:102C000011F0F80151F00201017010E03078DFF8A6
:102C10003C18096850EA01200190002201A92820EF
:102C2000FFF7CEFE4DE07078DFF820180860F868F6
:102C300010F1010F01D0F8680400012000F0D2FC6F
:102C4000386800F047FD2800C0B20A2811D10020E2
:102C5000DFF8F41708600020DFF8E81708600120AB
:102C6000DFF8DC170860220031000A20FFF7A8FE19
:102C700027E0387901280ED1B868002808D0002C48
:102C800006D04FF6FF7000F025FD3070761C641EF4
:102C9000082000F0B4FC3879012804D1210030006C
:102CA00000F057FD03E02100300000F042FD00205D
:102CB00000F098FC3879012802D1092000F09FFC2F
:102CC0000020BDE8FE837CB504000921DFF8800701
:102CD00000F0A0FC00F00AFC802000F002FC0020C4
:102CE00000F0F2FB4FF4487001900198002803D0E7
:102CF0000198401E0190F8E7012000F0E5FB4FF439
:102D0000FA7000F031FE0020DFF82417087000226E
:102D100069462D20FFF754FE009830F0FF20DFF8C1
:102D20003417884203D00120DFF804170870DFF859
:102D300000070078012814D15FF489100090002268
:102D400069462620FFF73CFE002200211F20FFF7E6
:102D500037FE26200090002269462820FFF730FE2B
:102D600006E03B200090002269461E20FFF728FE67
:102D7000002200210220FFF723FEDFF8B4060078CE
:102D8000002804D1002200213520FFF719FE00227F
:102D900000210420FFF714FE002200210D20FFF780
:102DA0000FFE002000906E46701C017851F001016A
:102DB00001703000017811F0FE01017030000178DF
:102DC00011F0FD0101703000017811F0FB0101707C
:102DD0003000017811F0F7010170002269461D20D2
:102DE000FFF7EEFD4FF403400090002269460920F2
:102DF000FFF7E6FD002269460820FFF7E1FD002C01
:102E00001AD1F02000900020050044F210408542C5
:102E10000CD25FF0FF3015F01F01C8400090022275
:102E200069460A20FFF7CCFD6D1CEEE70022002169
:102E30000020FFF7C5FD05E048F6200221000A202A
:102E4000FFF7BEFDDFF8E8050078012806D11F2056
:102E50000090002269462720FFF7B2FD4FF49660EC
:102E600000F082FD002200210720FFF7A9FD0020CD
:102E700076BD38B504004FF4034000900022694647
:102E80000920FFF79DFD002269460820FFF798FD05
:102E9000002C1AD1F02000900020050044F21040D0
:102EA00085420CD25FF0FF3015F01F01C840009042
:102EB000022269460A20FFF783FD6D1CEEE700221F
:102EC00000210020FFF77CFD05E048F620022100EC
:102ED0000A20FFF775FDDFF858050078012806D1B4
:102EE0001F200090002269462720FFF769FD31BDB1
:102EF000DFF864351860DFF864351960DFF8603595
:102F00001A607047F8B504000D0016001F00842EEB
:102F100009D340F2B122DFF84C15DFF84C0500F080
:102F200041FDAFF30080842F09D340F2B222DFF8D5
:102F30003415DFF8380500F035FDAFF30080B442FA
:102F400009D340F2B322DFF81C15DFF8240500F0A6
:102F500029FDAFF30080BD4209D34FF42D72DFF895
:102F60000415DFF8100500F01DFDAFF30080DFF859
:102F700008050460DFF804050560DFF80405066055
:102F8000DFF800050760F1BDDFF8FC241060DFF812
:102F9000FC2411607047F0B40400049D059EDFF826
:102FA000B804006800682860DFF8AC040068406876
:102FB0003060DFF8C4040768DFF8CC04D0F800C044
:102FC000DFF894040068006800FB0C772760DFF8E6
:102FD000B00400682768B84201D200205CE0DFF846
:102FE0009C040768DFF8A404D0F800C0DFF8680488
:102FF0000068406800FB0C771760DFF88804006801
:103000001768B84201D2002046E0DFF86C04076878
:10301000DFF87404D0F800C01CF1010CDFF83804AC
:103020000068006800FB0C777F1E0F60DFF850041B
:1030300000680F68B8420BD22F6808683F1ADFF8A3
:1030400040040068C7192F60DFF834040068086086
:10305000DFF828040768DFF83404D0F800C01CF15A
:10306000010CDFF8F4030068406800FB0C777F1E5A
:103070001F60DFF8100400681F68B8420BD2376881
:1030800018683F1ADFF8FC030068C7193760DFF8DB
:10309000F403006818600120F0BC70472DE9F84F78
:1030A0008CB080460126DFF8B0030068002802D10A
:1030B0005FF0FF30B8E1DFF8A0030068007810F09F
:1030C000070F01D0012700E00027DFF88C0300681C
:1030D000006817EBD0074046072800F02E8108282B
:1030E00053D0092800F092800A2805D00C2800F05F
:1030F000E1800D2808D021E1DFF890030068401C32
:10310000DFF88813086089E103A8019002A8009005
:1031100004AB05AA06A907A8FFF73DFF002830D099
:103120000798069950EA01200A9000220AA908206F
:10313000FFF746FC0598801C0499891C50EA012081
:103140000A9000220AA90920FFF73AFC5FF0000963
:10315000039881450FD25FF0000A0298824507D29A
:103160000222BF490A20FFF72BFC1AF1010AF4E7FB
:1031700019F10109ECE7C4480068401CC249086025
:10318000C2E70020C049086048E1BF480068002845
:103190003BD0BD480068401EBB49086003A80190B1
:1031A00002A8009004AB05AA06A907A8FFF7F3FE42
:1031B00000282AD00798069950EA01200990002299
:1031C00009A90820FFF7FCFB0598801C0499891CBD
:1031D00050EA01200990002209A90920FFF7F0FB1D
:1031E0005FF00009039881450FD25FF0000A029852
:1031F000824507D202229A490A20FFF7E1FB1AF121
:10320000010AF4E719F10109ECE707E1A0480168B8
:103210009D480068091A9C4800689D4A1268B0FBE6
:10322000F2F29B48006800FB02110C005FF00009FD
:10323000A1453ED20798069950EA01200890002245
:1032400008A90820FFF7BCFB0598801C0499891C7D
:1032500050EA01200890002208A90920FFF7B0FBDE
:1032600003A8019002A8009004AB05AA06A907A82C
:10327000FFF791FE00281CD05FF0000A03988245FA
:103280000FD25FF0000B0298834507D202227449E7
:103290000A20FFF795FB1BF1010BF4E71AF1010A75
:1032A000ECE779480068401C7749086019F101098A
:1032B000BEE7B3E0724801686F480068091A0291DE
:1032C000704801686D480068091A03916A480068EF
:1032D0006B49096850EA01200190002201A90820E9
:1032E000FFF76EFB65480068801C66490968891C09
:1032F00050EA01200190002201A90920FFF760FB9C
:103300005FF00009039848450FD35FF0000A029868
:10331000504507D3022252490A20FFF751FB1AF108
:10332000010AF4E719F10109ECE7002057490860A8
:10333000564800685449086070E06FE046480068ED
:103340008068804507D244480068C068804502D341
:103350000020804604E0404800688068B8EB000820
:103360003D48006800693C490968496801FB07F16C
:1033700008FB01F10844050003A8019002A8009091
:1033800004AB05AA06A907A8FFF705FE002840D050
:103390000798069950EA012000900022694608200B
:1033A000FFF70EFB0598801C0499891C50EA012048
:1033B0000090002269460920FFF702FB5FF0000938
:1033C0000398814525D23E005FF0000A02988245AD
:1033D0001BD228781AF00701C0B2C840C00703D535
:1033E0001E4800680B9002E01D4800680B90022206
:1033F0000BA90A20FFF7E4FA1AF00700072801D109
:103400006D1C761E1AF1010AE0E7354419F1010935
:10341000D6E71D480068401C1B49086000220021B7
:103420000020FFF7CDFA40460DB0BDE8F08F000058
:10343000B0000020D0580008305C00086A11000875
:1034400090000020700000206C00002094000020FC
:1034500040420F00FE0003007400002078000020AE
:103460007C000020A0600008C4610008D46100084E
:1034700088610008E4610008880000208C000020BA
:1034800000000020040000208000002084000020B4
:10349000080000200EB478B5C0B004006D4645AEFB
:1034A00032002100684600F08FFA2878002806D004
:1034B0002878FFF7F3FD6D1C10F1010FF5D141B035
:1034C00070BC5DF810FB000010B50400002C01D0AA
:1034D000012200E00022D2B20821A44800F0F0FA54
:1034E00010BD0100C9B2A24A1160704780B58AB010
:1034F00001210A2000F081FB00210A2000F0D0FB0E
:1035000000208DF8060000208DF8070001208DF8BE
:1035100004000820009002208DF8050069469348B9
:1035200000F06CFA0020FFF7CFFF00208DF80600B6
:1035300000208DF8070002208DF804000120009083
:1035400002208DF8050069468A4800F057FA0222E9
:103550000021884800F0BCFA0121022000F080FB25
:103560000021022000F0ACFB834800F076FC8C20A8
:10357000ADF81C000020ADF81E00FF2008900020D0
:10358000ADF8240000208DF8260007A97A4800F045
:10359000CDFB6020ADF808000120ADF80A00042042
:1035A000ADF80C00002004900020ADF814000020BD
:1035B000ADF816004FF48070ADF818000020ADF89B
:1035C0001A0002A96C4800F0E7FB01216A4800F0EC
:1035D0004AFC0121684800F031FC0020FFF781FF20
:1035E0000BB000BD10B50400002C01D0002200E09B
:1035F0000122D2B240215D4800F062FA10BD010004
:10360000082903D0092901D0002002E05B480160AD
:10361000012070473EB504000D0001210F2000F08D
:10362000ECFA00210F2000F03BFB00208DF8060093
:1036300000208DF8070001208DF804004020009044
:1036400002208DF805006946484800F0D7F90020AF
:103650008DF8060000208DF8070001208DF8040089
:103660002020009002208DF805006946444800F0B3
:10367000C5F900208DF8060000208DF80700012014
:103680008DF804000820009002208DF8050069469E
:103690003C4800F0B3F900208DF8060001208DF8B9
:1036A000070000208DF804001020009002208DF803
:1036B000050069462F4800F0A1F90020FFF792FFAE
:1036C0002020314908800020FFF78CFF2800FFF7F9
:1036D00096FF37BD10B40300002201202749096876
:1036E000491E10FA01F1002920D02020274C20800B
:1036F000194203D00820264C208002E00820254CE7
:10370000208052000520002801D0401EFBE7202029
:103710001D4C208020480068C00600D5521C0520A2
:10372000002801D0401EFBE74908DCE7100010BC70
:10373000704770B504000D002E003000461E0028B2
:1037400006D0207850F48070FFF7C4FF641CF4E7C3
:1037500070BD38B505000C00002C06D00F48FFF7EF
:10376000B9FF28706D1C641EF6E731BD000C0240E5
:103770003C04004000040240000400409800002087
:103780000000024000080240180002401A000240F7
:10379000180802401A08024010040240F0FF0F000F
:1037A00018B585B0040001A800F0C4F97748006896
:1037B00000900298C008B0FBF4F075490860012041
:1037C0007249086006B010BD00207049086070475B
:1037D0002DE9F8430025502601275FF0000800205E
:1037E00000F050FB012000F04DFB022000F04AFBEE
:1037F0000021002000F083FB0021042000F07FFB6B
:103800000021052000F07BFBDFF8889100F096FC9A
:10381000002801D001207DE000F0EAFD002806D05C
:103820007FF00101401A0FD0401E0BD00EE00020A7
:10383000FFF749FA8020FFF754FE00F01DFE002834
:1038400006D11CE0012065E0012063E0012061E079
:1038500000F0BBFE4FF47F624FF470614E48FFF7FB
:1038600047FB8323832274210A20FFF74BFB0021AF
:103870000020FFF789FB4948FFF70CFE01E001201B
:1038800080460A20FFF78CFF002000F09EFB0128F5
:103890003FD03E480068C003F6D5002000F023FB6F
:1038A000012000F020FB022000F01DFB15F00300BA
:1038B00000F00DFB6D1C4046C0B200280BD000F09C
:1038C0009EFE0400842384224946200000F0B7FEB7
:1038D0004846FFF7CEFA042000F077FB012809D113
:1038E0003000C0B26028CFDABE193000C0B2FFF796
:1038F000F8FDC9E7052000F068FB0128C4D13000BD
:10390000C0B24128C0DBF61B3000C0B2FFF7E9FDB2
:10391000BAE70020BDE8F28380B501F0ADF95FF4AD
:10392000E1301F49086000201D49888000201C49A3
:10393000C88000201A4908810020194988810C207C
:10394000174948811649002000F04EFBFFF73CFF65
:10395000FFF73EFF00F043FD00F037FE1049002066
:1039600000F042FB002002BD81B000280BD04FF4D4
:103970007A7100910099002903D00099491E0091A5
:10398000F8E7401EF1E701B07047000010E000E0EA
:1039900014E000E020880060540000205462000819
:1039A0009C00002000B583B00091019202906A460D
:1039B00004491820ABBE002801D1FEF7F1F903B08D
:1039C00000BD00BF1010020037B5044600250A46AE
:1039D0000194009502AB01A9074878441A30FCF71E
:1039E000D1FB019A157000284EBF04460198041BB4
:1039F000204603B030BD00BFF3D6FFFFF0B4002275
:103A0000002300240025102D4AD20122AA401300D1
:103A10000A681A4014009C4240D1066803272A0015
:103A2000D2B252009740BE43066006680F792A0062
:103A3000D2B2520097403E4306600A79012A02D072
:103A40000A79022A1AD1866803272A00D2B25200C4
:103A50009740BE43866086684F792A00D2B25200F2
:103A600097403E43866042680126AE40B2434260C2
:103A700042688E79AE40B6B232434260C6680327D0
:103A80002A00D2B252009740BE43C660C668CF79C2
:103A90002A00D2B2520097403E43C6606D1CB2E786
:103AA000F0BC704710B40200002310690C00A4B2EF
:103AB000204201D0012000E00020C0B210BC7047BD
:103AC0001300DBB2002B01D0018300E0418370477B
:103AD000F0B5002400251300DBB211F00706F6B2A2
:103AE000B60013FA06F60B009BB2DB1000EB83075F
:103AF0000B009BB2DB1000EB8303D3F820C05FF018
:103B00000F0E11F00703DBB29B001EFA03FE3CEA26
:103B10000E0CC7F820C00B009BB2DB1000EB830338
:103B20001B6A33430F00BFB2FF1000EB87073B62F5
:103B3000F0BD00002DE9F043002100220023022403
:103B4000DFF8B4512D6815F00C052E00002E04D0BE
:103B5000042E06D0082E08D01CE0DFF8A411016066
:103B60001BE0DFF8A011016017E0DFF89011096891
:103B7000C1F388110B00DFF884110968C1F301411A
:103B8000491C49000C00B3FBF4F6DFF87C114E43EE
:103B9000066002E0DFF868110160DFF85C11096877
:103BA00011F0F0010909DFF86461765C0768F740FD
:103BB0004760DFF844713F6817F4E057BF0ADFF849
:103BC0004CC11CF807C0D0F804E03EFA0CFEC0F867
:103BD00008E0DFF824E1DEF800E01EF4604E5FEA62
:103BE0005E3EDFF8288118F80E80D0F8049039FA8C
:103BF00008F9C0F80C90BDE8F0830A00D2B2002AA0
:103C000007D0DFF80C2112680243DFF804311A6094
:103C100005E0DFF8FC20126882433D4B1A607047D4
:103C20000A00D2B2002A05D03A4A12680243394B40
:103C30001A6004E0374A12688243364B1A607047B4
:103C40000A00D2B2002A05D0334A12680243324B2E
:103C50001A6004E0304A126882432F4B1A607047A2
:103C60000A00D2B2002A05D02C4A126802432B4B1C
:103C70001A6004E0294A12688243284B1A60704790
:103C80000A00D2B2002A05D0254A12680243244B0A
:103C90001A6004E0224A12688243214B1A6070477E
:103CA0000A00D2B2002A05D01E4A126802431D4BF8
:103CB0001A6004E01B4A126882431A4B1A6070476C
:103CC0000A00D2B2002A05D0174A12680243164BE6
:103CD0001A6004E0144A12688243134B1A6070475A
:103CE00010B40022044B1B6833F0EC6303430B4316
:103CF000014C236010BC7047083802400438024071
:103D00000024F40040787D0140420F006462000806
:103D100030380240343802403838024040380240DF
:103D200044380240103802402038024010B40022CB
:103D300003883B4CA0420ED03F4A90420BD0B0F1DA
:103D4000804F08D0374A904205D0374A904202D07F
:103D5000364A904204D14FF68F7213404A8813437B
:103D6000334A904207D0334A904204D04FF6FF4284
:103D700013400A89134303804A68C2620A88028595
:103D8000274A904202D02C4A904201D18A7A028678
:103D90000122828210BC7047F0B4002600275FF039
:103DA000000C038C4FF6FF6213400384038C84885D
:103DB000858B4FF68F7215404FF6FC7215400A88BE
:103DC00015434FF6FF5213408A8953EA02234A886B
:103DD00053EA0223124A904202D0174A904217D166
:103DE0004FF2FF721340CA8953EA02234FF6FF32A3
:103DF00013408A8853EA02234EF6FF7214404DF6B0
:103E0000FF7214400A8A54EA02144A8A54EA0214DD
:103E1000848085838A68C2630384F0BC7047000095
:103E2000000001400004004000080040000C004079
:103E30000010004000140040000401400A00D2B20B
:103E4000002A04D0028852F00102028004E00388B4
:103E50004FF6FE7213400380704702894FF6F871E7
:103E60000A40028170470A00D2B2002A04D00288B8
:103E700052F08002028004E003884FF67F72134004
:103E8000038070471CB50400012196482200D2B27D
:103E900050F82200FFF7B1FE93482100C9B230F874
:103EA0001100009001208DF8040000208DF806001C
:103EB00001208DF8070002208DF8050069468B4827
:103EC0002200D2B250F82200FFF798FD13BD8649B8
:103ED0000200D2B231F81210844A0300DBB252F869
:103EE00023201183704780490200D2B231F81210AA
:103EF0007E4A0300DBB252F823205183704730B56D
:103F000085B004000D00012179482200D2B250F89A
:103F10002200FFF772FE01214FF48040FFF7B0FE50
:103F200000208DF8100000208DF81300714821004A
:103F3000C9B230F81100039003A96F482200D2B231
:103F400050F82200FFF75AFD2800C0B201283AD1EC
:103F50006A482100C9B230F81110C9B2684822007D
:103F6000D2B230F81200C0B200F014FF6548210050
:103F7000C9B230F81100019000208DF8080020002F
:103F8000C0B2002803D00C208DF8090002E0082000
:103F90008DF8090001208DF80A0001A800F028FF23
:103FA00059482100C9B230F811008DF800000F20E7
:103FB0008DF801000F208DF8020001208DF803001C
:103FC000684600F061FF05B030BD10B504004948F7
:103FD0002100C9B230F8111047482200D2B250F87F
:103FE0002200FFF75FFD10BD3EB504000D0001216A
:103FF00046482200D2B250F82200454A2300DBB2E4
:1040000052F823201043FFF7F8FD2000C0B200282B
:1040100007D101213F482200D2B250F82200FFF719
:104020002FFE3D482100C9B230F81120D2B23B48E2
:104030002100C9B230F8111039482300DBB250F822
:104040002300FFF745FD37482100C9B230F81120A1
:10405000D2B235482100C9B230F8111033482300DC
:10406000DBB250F82300FFF733FD00208DF8060087
:1040700001208DF8070002208DF804002C48210053
:10408000C9B230F81100009002208DF80500694691
:1040900023482200D2B250F82200FFF7AFFC0220E2
:1040A0008DF8040023482100C9B230F811000090B7
:1040B00069461E482200D2B250F82200FFF79EFC4B
:1040C00029001D482200D2B250F8220000F018FF4B
:1040D000012119482200D2B250F8220000F084FFDA
:1040E00037BD0000F4610008846200080C00002065
:1040F00018610008046200081C00002034620008F7
:1041000024620008146200084462000894620008F7
:104110009C6200088C620008B4620008AC6200086F
:1041200044000020B8620008B06200084C00002083
:10413000A4620008A86200083C000020F8B598B00E
:10414000002401210120FFF77BFD01217820FFF7EA
:1041500054FD4CF20370009002208DF80400002002
:104160008DF8060003208DF805006946BD48FFF76D
:1041700045FC0C220021BB48FFF7AAFC0C220121C0
:10418000B848FFF7A5FC0C220821B648FFF7A0FCB1
:104190000C220921B348FFF79BFC0C220A21B148ED
:1041A000FFF796FC0C220E21AE48FFF791FC0C2283
:1041B0000F21AC48FFF78CFC4FF6807000906946E9
:1041C000A948FFF71BFC0C220721A748FFF780FC3A
:1041D0000C220821A448FFF77BFC0C220921A248ED
:1041E000FFF776FC0C220A219F48FFF771FC0C2296
:1041F0000B219D48FFF76CFC0C220C219A48FFF71D
:1042000067FC0C220D219848FFF762FC0C220E215E
:104210009548FFF75DFC0C220F219348FFF758FCEF
:104220004FF23F00009069469048FFF7E7FB0C22F1
:1042300000218E48FFF74CFC0C2201218B48FFF730
:1042400047FC0C2202218948FFF742FC0C22032183
:104250008648FFF73DFC0C2204218448FFF738FC18
:104260000C2205218148FFF733FC0C220C217F48EA
:10427000FFF72EFC0C220D217C48FFF729FC0C22B5
:104280000E217A48FFF724FC0C220F217748FFF714
:104290001FFC3F20009069467548FFF7AFFB0C22DA
:1042A00000217348FFF714FC0C2201217048FFF72E
:1042B0000FFC0C2202216E48FFF70AFC0C2203219E
:1042C0006B48FFF705FC0C2204216948FFF700FC4E
:1042D0000C2205216648FFF7FBFB4FF4C05000900D
:1042E00069466048FFF78AFB0C220B215D48FFF707
:1042F000EFFB0C220C215B48FFF7EAFB302000901B
:1043000069465848FFF77AFB0C2204215548FFF70D
:10431000DFFB0C2205215348FFF7DAFB80200090D9
:1043200069465048FFF76AFB0C2207214D48FFF70A
:10433000CFFB0320009069464B48FFF75FFB0C2240
:1043400000214948FFF7C4FB0C2201214648FFF732
:10435000BFFB002002900020039004200490012065
:104360000590002006900020079000200890002073
:10437000099000200A9000200B9010200C90002043
:104380000D9000200F9000201090002011904FF40D
:1043900080501290002013900020149000200E9066
:1043A0000020159002A8169002A8179009A800F006
:1043B00048FE0121002000F0B5FE5FF40025002634
:1043C0005FF0C04732002900380000F0C9FE002C21
:1043D00002D05FF0FF3000E0002019B0F0BD80B5E2
:1043E000002000F011FE00210120FFF729FC01BD93
:1043F00010B5C4B068461F494FF48872FCF7F2FE4E
:104400005FF0C0420020B0F5003F03D21060121DE3
:10441000401CF8E75FF0C0430021B1F5003F09D22E
:104420001800031D0068884202D05FF0FF3016E0DC
:10443000491CF2E75FF0C0440022442A0ED26846CD
:1044400050F8220020602068694651F82210884206
:1044500002D07FF0010002E0521CEEE7002044B0E1
:1044600010BD0000000C0240001002400014024089
:1044700000180240905F0008FEB5002600F0E9FA3F
:1044800001210120FFF7B9FB4FF48070009002205A
:104490008DF8040000208DF8060000208DF807003C
:1044A00002208DF805006946DFF89407FFF7A6FAA9
:1044B00000215FF48000FFF713FC01212020FFF7AB
:1044C0009CFB4FF40070009001208DF80400002048
:1044D0008DF8060000208DF8070002208DF80500F9
:1044E0006946DFF86007FFF789FA01224FF400718F
:1044F000DFF85007FFF7E4FA00F0BEF901212020B1
:10450000FFF77BFB4FF40060009001208DF8040062
:1045100001208DF8060000208DF8070002208DF89C
:1045200005006946DFF81C07FFF768FA01224FF41F
:104530000061DFF81007FFF7C3FA01210220FFF73F
:104540005CFB0420009001208DF8040000208DF811
:10455000060000208DF8070002208DF8050069464E
:10456000DFF8E406FFF74AFA01220421DFF8D80653
:10457000FFF7A6FA00F09BFA222000F01EFB0700CE
:104580003743002000F019FB04003C4300F0A1FA7F
:10459000002C0CD100F08BFA232000F00EFB2043FE
:1045A0000400012000F0AFFA050000F092FA2800A4
:1045B000C0B2402802D05FF0FF300400002C02D0CF
:1045C0005FF0FF3000E00020FEBD80B5DFF87C0624
:1045D00000F0FAFD00224FF40071DFF86806FFF7E3
:1045E0006FFA00224FF40061DFF85806FFF768FA0F
:1045F00000F028FF00210120FFF712FB01BD80B56C
:104600000121DFF8480600F0ABFE012000F06BFF4F
:10461000DFF83C16DFF8340600F0B4FE0128F7D1CD
:10462000DFF82C16DFF8240600F0C5FE42F2082160
:10463000DFF8180600F0A2FE5FF0C04002BD2DE9D1
:10464000FE4F84B005000F00BDF81410BDF818002F
:1046500041434C00002C00F10C8128788DF80900B2
:10466000681C01788DF80810401C01788DF80A103C
:10467000401C90F80080451C9DF8090000F06AFF7E
:1046800006004046C0B2803800F072FFDFF8C41563
:1046900000F080FF310000F0E9FF03909DF8090071
:1046A00000F058FF06004046C0B2803800F060FFBE
:1046B000DFF8A41500F06EFF310000F0D7FF01F025
:1046C00087F882468B469DF808008038FCF7F4FE98
:1046D000DFF88825DFF88835FDF774F952465B4628
:1046E000FCF7FCFE01F098F806009DF8090000F0C8
:1046F00031FF81469DF80800803800F039FFDFF86F
:10470000641500F047FF494600F0B0FF8346039868
:10471000002101F0B5F801D2002003903000002103
:1047200001F0AEF801D2002006005846002101F049
:10473000A7F801D200208346300001F0B5F85FEA07
:10474000C00919F0E009584601F0AEF8C0B259EAC4
:10475000D00987F800907F1C039801F0A5F88146E6
:1047600019F0F809300001F09FF8C0B259EA501969
:1047700087F800907F1C9DF80A0000F0EBFE814650
:104780004046C0B2803800F0F3FEDFF8C81400F0F5
:1047900001FF494600F06AFF03909DF80A0000F00F
:1047A000D9FE81464046C0B2803800F0E1FEDFF815
:1047B000A81400F0EFFE494600F058FF01F008F899
:1047C000CDE900019DF808008038FCF775FEDFF8A0
:1047D0008C24DFF88C34FDF7F5F8DDE90023FCF7D5
:1047E0007DFE01F019F881469DF80A0000F0B2FE46
:1047F00082469DF80800803800F0BAFEDFF86414A5
:1048000000F0C8FE514600F031FF824603980021B7
:1048100001F036F801D2002003904846002101F053
:104820002FF801D2002081465046002101F028F8DF
:1048300001D200208246484601F036F8C60016F044
:10484000E006504601F030F8C0B256EAD0063E709D
:104850007E1C039801F028F8070017F0F807484677
:1048600001F022F8C0B257EA50173770771CA41E27
:10487000F0E607B0BDE8F08F00B597B00121172032
:10488000FFF7BBF901210120FFF7CAF90D2206212C
:10489000DFF8AC03FFF71CF90D220421DFF8A003B9
:1048A000FFF716F90D220721DFF89C03FFF710F937
:1048B0000D220621DFF8B003FFF70AF90D220A21C5
:1048C000DF48FFF705F90D220821DFF89C03FFF709
:1048D000FFF80D220921DFF89003FFF7F9F80D2208
:1048E0000421DFF88803FFF7F3F80D220621D648EC
:1048F000FFF7EEF80D220521DC48FFF7E9F80D225D
:104900000621DA48FFF7E4F81020009002208DF825
:10491000040003208DF8050000208DF8060001201A
:104920008DF807006946C648FFF768F880200090B8
:104930006946C548FFF762F84020009002208DF8D4
:10494000040000208DF806006946BD48FFF756F8C0
:104950004FF4507000906946C348FFF74FF84FF48A
:10496000806000906946B648FFF748F870200090D4
:104970006946BE48FFF742F8402000906946B248B9
:10498000FFF73CF800F05EFD0220ADF810000020BB
:10499000ADF812000020ADF814008020ADF816002C
:1049A0000020ADF818000020ADF81A000020ADF886
:1049B0001C0004A800F05CFD0020ADF80800832076
:1049C000ADF80C000020ADF80A0040F20710ADF879
:1049D0000E0002A800F07AFD012000F096FD0120F3
:1049E00000F062FD01215FF48000FFF706F99748AF
:1049F00000F0EAFB5FF0007008909D4809905FF0BE
:104A0000C0400A9000200B9042F208200C90002039
:104A10000D904FF480600E904FF480500F904FF443
:104A200080501090002011905FF400301290002010
:104A3000139003201490002015900020169008A9D0
:104A4000824800F063FC0121804800F089FC17B027
:104A500000BDE0B501214020FFF7CFF84FF4A05092
:104A6000009001208DF8040001208DF8060001203F
:104A70008DF8070000208DF8050069467D48FEF797
:104A8000BDFF01224FF480517A48FFF719F8012247
:104A90004FF480617748FFF713F800F001F807BD85
:104AA00042F210710800411E0028FBD1704780B50A
:104AB00000224FF480516F48FFF702F8FFF7F0FF34
:104AC00000224FF480616B48FEF7FAFFFFF7E8FF22
:104AD00001BD80B500224FF480516648FEF7F0FF1B
:104AE000FFF7DEFF01224FF480616248FEF7E8FF26
:104AF000FFF7D6FF01224FF480515E48FEF7E0FF3A
:104B0000FFF7CEFF01BD70B50400002501224FF470
:104B100080515848FEF7D4FF00263000C0B2082864
:104B20001FDAFFF7BDFF01224FF480615148FEF705
:104B3000C7FFFFF7B5FF4FF480514E48FEF7B2FFB5
:104B400010F00100284305003000C0B2072800D053
:104B50006D0000224FF480614648FEF7B1FF761CDD
:104B6000DBE7FFF79DFF2000C0B2002801D0012243
:104B700000E00022D2B24FF480513E48FEF7A0FF81
:104B8000FFF78EFF01224FF480613A48FEF798FF4D
:104B9000FFF786FF00224FF480613648FEF790FF52
:104BA000FFF77EFF01224FF480513248FEF788FF65
:104BB000FFF776FF2800C0B270BD70B50400002575
:104BC0002800C0B208281ADA2200D2B2D2094FF463
:104BD00080512848FEF774FF6400FFF761FF01224F
:104BE0004FF480612348FEF76BFFFFF759FF002267
:104BF0004FF480611F48FEF763FF6D1CE0E7012260
:104C00004FF480511B48FEF75BFFFFF749FF01227D
:104C10004FF480611748FEF753FFFFF741FF4FF451
:104C200080511448FEF73EFF060000224FF48061D9
:104C30001048FEF745FFFFF733FF3000C0B270BDEC
:104C400000000240001402400004024028640240B8
:104C500000080010EE7CAF3F21B032BF1B2FDD24D7
:104C60000681D5BF2DB2DD3F000802400010024092
:104C7000280005500018024080B53E48006850F0FA
:104C800001003C49086000203B4908603948016840
:104C90003A480140374801600020394908603548EA
:104CA000006830F4802033490860002035490860EE
:104CB00000F005F85FF000603349086001BD82B084
:104CC00000200190002000902A48006850F48030B5
:104CD000284908602748006810F4003000900198C7
:104CE000401C01900098002803D10198B0F5A06FF6
:104CF000F0D120480068800302D50120009001E037
:104D0000002000900098012832D11B4800681A4901
:104D100008601948006850F40040174908601648B8
:104D2000006850F4A05014490860184814490860FD
:104D30001048006850F080700E4908600D48006807
:104D40008001FBD540F20370114908600A480068F1
:104D500080088000084908600748006850F0020099
:104D6000054908600448006810F00C000828F9D1D3
:104D700002B070470038024008380240FFFFF6FEDC
:104D8000043802400C38024008ED00E0193C402590
:104D9000003C024070B400230F2211F00304E4B27F
:104DA000A40012FA04F4114A0D00EDB2AD1052F84D
:104DB0002520A2430D4D0E00F6B2B61045F8262070
:104DC0000A4A0D00EDB2AD1052F825500600F6B2B9
:104DD00011F00302D2B2920096403543034A0E000E
:104DE000F6B2B61042F8265070BC70470838014041
:104DF0000022214B8179002936D01F490A680168B9
:104E00008A431D490A601D490A6801688A431B4993
:104E10000A6001795A18136801680B431360184936
:104E20000B6801688B4316490B6016490B680168D3
:104E30008B4314490B60417910290CD110490B6840
:104E400001680B430E490B600E490B6801680B4368
:104E50000C490B600EE008494379C9180A00136831
:104E600001680B43136005E001795A181368016863
:104E70008B43136070470000003C0140043C01403C
:104E8000083C01400C3C0140F0B4002200230F24F8
:104E9000C17800291FD01649096811F4E061D1F5E5
:104EA000E061090AD1F104052B00CC4045789D4012
:104EB0008678264035432D012A000E4D0678AA55E6
:104EC0000125067816F01F06B5400B4E07787F11B6
:104ED00046F8275009E00121057815F01F05A94083
:104EE000064D0678761145F82610F0BC7047000094
:104EF0000CED00E000E400E000E100E080E100E013
:104F00002DE9F04F85B004000D00002600275FF06A
:104F100000085FF00009A8890028218A31F4405177
:104F2000E8880143009100982082B4F80CA02D4835
:104F300010EA0A0AA88850EA0A0A288950EA0A0AE6
:104F4000688950EA0A0AA4F80CA0B4F814B03BF43B
:104F5000407BA88950EA0B0BA4F814B001A8FEF717
:104F6000E9FD1E48844202D01D48844201D10499C3
:104F700000E00399A089000407D5192000FB01F087
:104F80002A685200B0FBF2F206E0192000FB01F0A3
:104F90002A689200B0FBF2F26420B2FBF0F6360110
:104FA00033001B097FF0630000FB0323A08900048A
:104FB00008D5D80032306427B0FBF7F010F00700B6
:104FC000064307E0180132306427B0FBF7F010F019
:104FD0000F000643268105B0BDE8F08F00100140A8
:104FE00000140140F3E9FFFF0A00D2B2002A04D006
:104FF000828952F40052828104E083894DF6FF7267
:105000001340838170470000002806D143F2DB0182
:105010005FF0204242F8201005E043F2D2015FF039
:10502000204242F820107FF070415FF0204202EBF6
:10503000800251607FF07041DFF81C2142F820109F
:105040007047426881680A43C1680A4301690A439C
:1050500041690A4381690A43C1690A43016A0A43F3
:10506000416A0A43816A0A43C16A0A43016B0A43DF
:105070005FF02041036841F82320816808290BD1A3
:105080005FF02041026851F8221051F040015FF0BA
:105090002042036842F82310416B0A68416B49685B
:1050A00052EA0112416B896852EA0122416BC968D8
:1050B00052EA0142416B096952EA0152416B496966
:1050C00052EA0162416B89690A435FF0204103683B
:1050D00001EB83014A60C16AB1F5804F1AD1816B3F
:1050E0000A68816B496852EA0112816B896852EA49
:1050F0000122816B096952EA0152816B496952EAC6
:105100000162816B89690A43DFF84C10036841F83A
:10511000232006E07FF07041DFF83C20036842F86E
:10512000231070470A00D2B2002A0AD05FF0204252
:1051300052F8202052F001025FF0204343F8202073
:1051400009E05FF0204252F82030044A13405FF03B
:10515000204242F820307047040100A0FEFF0F00FB
:1051600062F30F2262F31F42401810F0030308D0CD
:10517000C91A1FD3DB0748BF00F8012D28BF20F84C
:10518000022D130030B414461546103928BF20E90B
:105190003C00FAD8490728BF20E90C0048BF40F876
:1051A000042D890028BF20F8022D48BF00F8012DEA
:1051B00030BC7047C91818BF00F8012DCB0728BFB5
:1051C00000F8012D7047000001684908490001609E
:1051D0000021016000214160002181600021C16047
:1051E0000021016121214161DFF8EC11884204D1E5
:1051F0003D21DFF8E821116087E0DFF8E411884203
:1052000005D14FF47461DFF8D42111607DE0DFF83F
:10521000D411884205D15FF47411DFF8C021116008
:1052200073E0DFF8C411884205D15FF07461DFF8E4
:10523000AC21116069E0DFF8B411884205D1DFF8D4
:10524000B011DFF8B02111605FE0DFF8AC118842E7
:1052500005D1DFF8A811DFF89C21116055E0DFF8D7
:10526000A011884205D1DFF89C11DFF88821116078
:105270004BE0DFF89411884205D15FF03D51DFF833
:105280007421116041E0DFF88411884204D13D218E
:10529000DFF87C21116038E0DFF87811884205D111
:1052A0004FF47461DFF8682111602EE0DFF86811B7
:1052B000884205D15FF47411DFF85421116024E0B5
:1052C000DFF85811884204D15FF07461504A1160D0
:1052D0001BE05349884203D14549524A116014E00A
:1052E0005149884203D145494E4A11600DE04F496A
:1052F000884203D143494B4A116006E04C49884239
:1053000003D15FF03D51474A1160704730B400232C
:105310000468484A14400A681443CA6814434A6936
:1053200014438A691443CA6914430A6A14434A6AD3
:1053300014438A6A14434A6B14438A6B144304600F
:105340004569ED08ED00CA6A15430A6B15434561CE
:105350000A6942604A6882608A68C26030BC7047ED
:105360000A00D2B2002A04D0026852F001020260A0
:1053700003E0026852085200026070470A0092B2CD
:105380004260704730B40200002300201F4CA2424C
:1053900001D2294C00E0294C8D0001D5656800E060
:1053A0002568274805400D4201D0012000E000207B
:1053B000C0B230BC7047154A904201D21E4A00E08C
:1053C0001E4A8B0003D51E4B0B40D36002E01C4BE2
:1053D0000B4093607047000010600240086002407C
:1053E0002860024040600240586002407060024005
:1053F0003D0000200C60024088600240400F002009
:10540000A060024000003D20B860024010640240ED
:10541000086402402864024040640240586402402C
:10542000706402400C64024088640240A064024040
:10543000B86402403F801CF00060024000640240FB
:105440007D0F7D0F00203A4908600020394908602F
:105450001F20394908600020384908600020384979
:10546000086000203749086000203749086070470D
:1054700000222F490B6835490B402D490B602C4900
:105480000B6833490B4001880B4341880B438188EB
:105490000B43C1880B4301890B4341890B4381892D
:1054A0000B4323490B6070470100C9B2002906D0A5
:1054B0001F49096851F480411D4A116005E01C49EB
:1054C000096831F480411A4A1160704741880288A6
:1054D00051EA02411B4A1160C188828851EA0241A7
:1054E000194A116070470100C9B2002906D010495D
:1054F000096851F001010E4A116005E00C49096884
:10550000490849000A4A116070470100C9B20029E0
:1055100006D00749096851F00401054A116005E009
:105520000349096831F00401014A11607047000025
:10553000000005500C0005501400055018000550DF
:105540001C0005502000055024000550FEBFFFFF41
:105550000DF0FFFF50B1B0FA80F18840C1F19D011C
:10556000C905020672F1004241EB102070470000AD
:1055700010F0004C68B148BF4042B0FA80F188405A
:10558000D1F19D014CEAC15C010671F100414CEB87
:1055900010207047FF2212EAD05C1DBF12EAD153DF
:1055A000944593422BE09C44D30780EA010243EAEE
:1055B000002043EA01211A40A1FB0030C04238BF5D
:1055C00000187CF17F010BDBFE294ADA5B0842EA16
:1055D000C15153EA006373F1004C51EB1020704746
:1055E000D1F1080CDCF120012FDB5B0810FA01F18E
:1055F0000B4320FA0CF073F1004150417047944581
:105600001CBF02EAD153934280EA010202F0004239
:105610001DD0400019D0490017D05BB9634514D0A4
:105620000902B1FA81F39940BCEB030CC00140F0D0
:105630000040C1E70002B0FA80FC10FA0CF0B3EBB6
:105640000C0CC90141F00041B6E710007047400062
:105650000AD0490008D010F1807F94BF11F1807FFB
:1056600002E042F0FF407047D043704790EA010FDC
:1056700040F16C8081F00041431A4FF000423EBF80
:105680005340C01AC918D3095FEAD05C13EB400F2E
:1056900034BFB3EB410F40E07CEBD1530CD342EA73
:1056A000012122D8D1EB402009D3400A28BF5FEA6C
:1056B000500140EBCC507047401A15D04002B0FA70
:1056C00080F2521C9040400A4FEA3C23B3EB026345
:1056D00084BF00EB730007E040F400001A16DB07FC
:1056E000C2F10102D04018437047182BFCDC31FA9C
:1056F00003F202FA03F3591A38BF42F00102D2EB67
:1057000040203CBF0018ACF1010C5FEACC5CC20544
:1057100072F100414CEB5020704713EB400F0FD259
:10572000C94209D0ACEBD153022B03DB4902172B42
:10573000DDDD70479143401AC042D5D1002070474B
:1057400013EB410FD0D36FF000007047421A3CBFFB
:10575000801A8918C0F3C752FF2A4FF0004C22D09C
:10576000C1F3C7534BB3D21AD2F119032EDD4CEA61
:1057700001214CFA03F321EA0303D1404CEA002251
:105780006FF3160052180FD353EAC2534CEA520279
:1057900073EB0C0C50EB1220420012F1807F38BFEB
:1057A00070476FF31600704753EA026322EA0C0257
:1057B00073EB0C0C50EB12207047490212BF9A4257
:1057C00000EB5120EFE7D2F11703D2D5704700006C
:1057D000C0F3C75181B1FF2906D0C110400721F0A5
:1057E000E04101F16051704741020CBF40F4E0011B
:1057F0006FF000410020704700F0004100020AD025
:10580000B0FA80FC00FA0CF001F16051A1EB0C51F0
:1058100001EBD0214005704701F000428B1AA3F143
:105820006051B1F5801F0ADBB1F17F6F1FD242EAF0
:10583000C102C10071F1004142EB507070470B157D
:10584000C3F10903212B10D2890241EA9051800251
:105850000128494141F0004121FA03F0C3F120033E
:10586000994071F1004150417047100070476FF04E
:10587000000013EB103F5CBF000E42EAC0507047BF
:1058800040EA010C1CEB0C0F4FF0807C07D305D0D5
:105890001CEB400F9CBF1CEB410F814270471CEB7F
:1058A000410F98BF88427047C0F3C751D1F19E01A4
:1058B00008DD020242F00042CA4002EBE07282EAD6
:1058C000E07070477FEAE07080F0004070470000B1
:1058D00000000000000000000000000000000000C8
:1058E00010000000000000000000000000000000A8
:1058F0001100000000000000000000000000000097
:105900001300000000000000000000000000000084
:105910002000000000000000000000000000000067
:105920002100000000000000000000000000000056
:10593000280000000000000000000000000000003F
:10594000290000000000000000000000000000002E
:105950002A0000000000000000000000020000001B
:105960002B0000000000000000000000020000000A
:105970002C0000000000000000000000FFFFFFFFFF
:105980002D000000000000000000000014000000D6
:1059900037000000000000000000000001000000CF
:1059A00038000000000000000000000000000000BF
:1059B00039000000000000000000000000000000AE
:1059C000DA000000010000000000000001000000FB
:1059D000DB000000010000000000000001000000EA
:1059E000DC000000010000000000000001000000D9
:1059F000B4000000000000000000000004000000EF
:105A0000B5000000000000000000000004000000DD
:105A1000B6000000000000000000000004000000CC
:105A2000B8000000000000000000000001000000BD
:105A3000B7000000010000000000000001000000AD
:105A4000D100000000000000000000000000000085
:105A5000D000000000000000000000000000000076
:105A6000D400000000000000000000000100000061
:105A7000D50000000100000000000000010000004F
:105A80000000000000000000000000000000000016
:105A900033000000000000000000000003000000D0
:105AA00000000000000000000000000000000000F6
:105AB00025000000000000000000000001000000C0
:105AC000FFFFFFFF000000000000000000000000DA
:105AD000FFFFFFFF000000000000000000000000CA
