:020000040800F2
:1000000010200020951200088112000883120008B9
:1000100085120008871200088912000800000000FD
:100020000000000000000000000000008B1200082B
:100030008D120008000000008F12000891120008C5
:10004000C1120008C5120008C9120008CD1200082C
:10005000D1120008D5120008D9120008DD120008DC
:10006000E1120008E5120008E9120008ED1200088C
:10007000F1120008F5120008F9120008FD1200083C
:100080000113000805130008091300080D130008E8
:100090001113000815130008191300081D13000898
:1000A0002113000825130008291300082D13000848
:1000B0003113000835130008391300083D130008F8
:1000C0004113000845130008491300084D130008A8
:1000D0005113000855130008591300085D13000858
:1000E0006113000865130008691300086D13000808
:1000F0007113000875130008791300087D130008B8
:100100008113000885130008891300088D13000867
:100110009113000895130008991300089D13000817
:10012000A1130008A5130008A9130008AD130008C7
:10013000B1130008B5130008B9130008BD13000877
:10014000C1130008C5130008C9130008CD13000827
:10015000D1130008D5130008D9130008DD130008D7
:10016000E1130008E5130008E9130008ED13000887
:10017000F1130008F5130008F9130008000000004F
:10018000FD130008011400082DE9F843040016D0FF
:100190002078DFF84454C00713D5A86800F00C009D
:1001A000042807D0A86800F00C0008283ED1686831
:1001B00040023BD52868800303D56068002800F022
:1001C00057812078DFF81464800719D5A86810F0EB
:1001D0000C0F07D0A86800F00C00082856D16868FA
:1001E000400253D42868800703D5E068012840F016
:1001F0003F812868216920F0F80040EAC1002860AA
:10020000207800076CD56169DFF8D40300295AD043
:100210000121016000F031FA0746686F80075FD462
:1002200000F02BFAC01B0328F7D3FCE06068B0F5A0
:10023000803F06D0B0F5A02F286806D140F480207A
:100240002860286840F4803005E020F48030286081
:10025000286820F480202860606858B100F00DFA0A
:10026000074628688003ACD400F007FAC01B652855
:10027000F7D3D8E000F001FA074628688003A0D53C
:1002800000F0FBF9C01B6528F7D3CCE0E06868B14B
:100290000120306000F0F1F9074628688007A8D4F3
:1002A00000F0EBF9C01B0328F7D3BCE0306000F08E
:1002B000E4F9074628688007A2D500F0DEF9C01BE4
:1002C0000328F7D3AFE0016000F0D7F90746686F65
:1002D000800705D500F0D1F9C01B0328F7D3A2E0B1
:1002E0002078400761D5286CC0004FF000080CD47E
:1002F000CDF800804FF00108286C40F08050286451
:10030000286C00F0805000900098DFF8D892D9F85F
:100310000000C00512D4D9F8000040F48070C9F87C
:10032000000000F0AAF90746D9F80000C00505D47E
:1003300000F0A3F9C01B0328F6D374E0A0680128DD
:1003400005D00528286F06D140F004002867286FE3
:1003500040F0010005E0400840002867286F20F0C9
:100360000400286741F28939A06858B100F085F986
:100370000746286F800711D400F07FF9C01B48455D
:10038000F7D350E000F079F90746286F800705D5CC
:1003900000F073F9C01B4845F7D344E0B8F1000FF3
:1003A00003D0286C20F080502864A069002861D018
:1003B000A96801F00C01082937D0022828D100F0E3
:1003C0005CF807462868800105D500F056F9C01B87
:1003D0000328F7D327E0E069216A0843616A40EA0D
:1003E0008110A16A891EC903090C40EA0140E16A33
:1003F00040EA01606860012000F040F80746286884
:10040000800137D400F039F9C01B0328F7D30AE084
:1004100000F033F80746286880012BD500F02DF94D
:10042000C01B0328F7D3032025E0012820D06868EB
:10043000E26900F48001914202BF00F03F01226AAC
:10044000914201BF47F6C0710140626AB1EB821F61
:100450000ED1A26A921ED20300F44031120CB1EB0D
:10046000024F02BF00F07060E16AB0EB016F01D093
:10047000012000E00020BDE8F2830020306600F09B
:10048000FCB82DE9F04104000D4652D0564E00F064
:1004900077F802D200F073F84BD120684E4F8107F5
:1004A00012D5400703D5B86840F4E050B860207812
:1004B000000703D5B86840F46040B860B868A16828
:1004C00020F0F0000843B8602078C00729D56068A4
:1004D000012802D13968890305E0022818BF0328E2
:1004E00003D13968890103D423E03968890720D50D
:1004F000B968890840EA8100B86000F0BEF880461B
:10050000B868616800F00C00B0EB810F09D000F012
:10051000B4F8A0EB080041F289318842F0D30320FF
:100520002BE0306800F00700854204D200F027F885
:1005300001D0012021E02078400705D5B868E168A6
:1005400020F4E0500843B8602078000706D5B8686A
:10055000216920F4604040EAC100B86000F015F85D
:10056000BA682249C2F30312515CC84020490860AE
:100570002048006800F05EF80020BDE8F08135708A
:10058000306800F00700A842704710B51A4C606848
:1005900000F00C00042802D0082802D019E0174807
:1005A00010BD206800F03F02206800234002206850
:1005B000C0F388104CBF11491149A1FB000100F0A4
:1005C00077F82168C1F30141491C4900B0FBF1F003
:1005D00010BD0B4810BD000000380240000047422B
:1005E000800E474200700040003C02402C12000880
:1005F0000C000020080000200438024040787D01F3
:100600000024F40080B52748016841F400710160BE
:10061000016841F480610160016841F4807101600A
:10062000032000F0CAF80F2000F004F800F00EF9E3
:10063000002002BD38B51C4D297804464FF47A706D
:10064000B0FBF1F019490968B1FBF0F000F0DFF8F8
:1006500050B9102C08D2002221464FF0FF3000F094
:10066000B9F8AC60002032BD012032BD0E484168AF
:10067000027851FA82F1416070470B484068704738
:1006800038B50446FFF7F9FF14F1010F054602D013
:10069000054800782418FFF7F0FF401BA042FAD36A
:1006A00031BD0000003C0240000000200C00002092
:1006B0001B4213D1094236D12AB18446B0FBF2F075
:1006C00002FB10C2704700F0A1B9FCD30022002346
:1006D00070470B000200002100207047904271EB30
:1006E000030CF6D370B5B1FA81F4B3FA83F52C1B81
:1006F000A340C4F1200532FA05F63343A2405FF06F
:100700000046E64002E05B085FEA3202841A71EBC1
:10071000030524BF204629467641F4D302000B008E
:100720003000002170BD012ACFD970B5140C20D043
:10073000B1FA81F4B2FA82F5C4F120046419B4F17B
:100740002006D6D3B2405FF00044F440002502E01A
:1007500052085FEA3303C61A71EB020E24BF30461B
:10076000714664416D41F3D302000B002000290063
:1007700070BD0C46B1FBF2F102FB11452D0445EAB8
:100780001045B5FBF2F402FB145580B240EA054572
:10079000B5FBF2F002FB105240EA044070BD0000CD
:1007A0000901002802D4244A81547047234A00F0EA
:1007B0000F00801800F8041C704721490A684FF6A2
:1007C000FF031A4000F0070042EA00201D4A1043D0
:1007D0000860704738B51A4B1B68C3F30223C3F196
:1007E0000704052C28BF04241D1D072D34BF00233A
:1007F000DB1E012505FA04F4641E2140994005FA28
:1008000003F35B1E1A401143BDE83440C8E710B53E
:10081000401EB0F1807F01D3012010BD0A4C606002
:100820000F214FF0FF30FFF7BBFF0020A060072033
:100830002060002010BD000000E400E018ED00E0A2
:100840000CED00E00000FA0510E000E081B00020AF
:1008500000906648416841F480414160416801F47C
:1008600080410091009900210091016841F0805180
:100870000160006800F080500090009801B070475F
:1008800010B586B000F088F820685949884242D1F6
:1008900000200090574C5848416841F001014160E8
:1008A000416801F0010100F038F841F010010160E9
:1008B000016801F0100100F088F841F004010160C6
:1008C000016801F0040100F028F800F074F87220CB
:1008D00000F05CF804900D200590484800F098F86E
:1008E00000F05FF80D200590204600F091F84FF4DD
:1008F000886000F018F8204600F08AF84FF4A070E5
:1009000000F011F83E4800F083F8C02000F00BF82A
:100910003C4800F07DF806B010BD00910099002120
:10092000009101687047019001A902200290002007
:10093000039004900D200590704710B586B000F02C
:100940002BF82068304988421ED1002000902A48A8
:10095000416941F480514161416901F4805100F0E5
:1009600034F800F028F8202000F010F8032004905C
:10097000052005901F4800F04BF800F012F8052004
:100980000590204800F044F806B010BD0190022008
:100990000290002003907047044601A8142100F043
:1009A0002FB91020019001A902200290002003908D
:1009B00003200490704741F00201016001A9006822
:1009C00000F002000090009870470091009900210B
:1009D0000091016841F001010160016801F001012D
:1009E0000091009900210091016870474038024051
:1009F0000000055000000240303802400010024064
:100A0000000802400004024000300140704700002E
:100A10002DE9F84F00226F4BDFF8BC81DFF8BC9165
:100A20004FF00F0A012707FA02F40F682740A74288
:100A300040F0BF804FEA420C032505FA0CF56FEA3F
:100A4000050E4D6805F00306012E1CBF05F00305D9
:100A5000022D10D18568CE680EEA050506FA0CF65F
:100A600035438560456825EA04044D68C5F30015E3
:100A700095402C4344600C7904F00304032C1DD0F2
:100A8000C4688D680EEA040405FA0CF52C43C460B2
:100A90000C7904F00304022C10D1D40800EB840478
:100AA00002F00705266AAD000AFA05FB26EA0B06E6
:100AB000D1F810B00BFA05F53543256204680EEA4B
:100AC00004050C7904F0030404FA0CF42C430460CC
:100AD0004C6814F4403F6CD0002400944FEA920C10
:100AE000D9F8004044F48044C9F8004002F00305FE
:100AF000D9F8004004F480440094AE00009C58F8FB
:100B00002C400AFA06F5AC43354DA84208BF002533
:100B100022D0344DA84208BF01251DD0324DA84235
:100B200008BF022518D0314DA84208BF032513D0B5
:100B30002F4DA84208BF04250ED02E4DA84208BF55
:100B4000052509D02C4DA84208BF062504D02B4D01
:100B5000A8420CBF07250825B5402C4348F82C4077
:100B6000FD431C6805EA040E4C68E40348BF47EAED
:100B70000E0EC3F800E05C6805EA040E4C68A4039E
:100B800048BF47EA0E0EC3F804E09C6805EA040E6D
:100B90004C68E40248BF47EA0E0EC3F808E0DC6880
:100BA00005EA040C4C68A40248BF47EA0C0CC3F8E1
:100BB0000CC0521C102AFFF435AFBDE8F18F00695C
:100BC000084018BF0120C0B2704702B90904816112
:100BD00070470000003C01400838014044380240A2
:100BE000000002400004024000080240000C0240E5
:100BF000001002400014024000180240001C024095
:100C0000002200F001B8000000B500BF13009646B6
:100C10009446103928BFA0E80C50FAD85FEA417C0E
:100C200028BF0CC048BF40F8042BC90728BF20F8D4
:100C3000022B48BF00F8012B00BD000010B5FFF7E4
:100C4000E1FC00F0B5F800F005F9C54CC548A06519
:100C50000020E06520666066A066E06620670820E8
:100C6000A06704F1580000F0C3F908B172B6FEE7BE
:100C7000BD482060002060604FF40040A06000206C
:100C8000E060206160614FF40070A061002020628C
:100C90006062A0620A20E062204600F0EBF988B1B1
:100CA00072B6FEE70122402100F087F9012280217F
:100CB00000F083F9012200F07EF901224FF4007167
:100CC00000F07BF94FF40051A848A94CFFF777FFDB
:100CD0000028E7D00121A748FFF771FF01280CD1B8
:100CE0000022402100F069F90122802100F065F91D
:100CF000012200F060F90022E0E70122402100F02B
:100D00005CF90022802100F058F900F053F900F05E
:100D100047F800F052F900F047F80022402100F0B7
:100D20004CF90122802100F048F900F043F900F06D
:100D300037F800F042F900F037F80022402100F0C7
:100D40003CF90022802100F038F9012200F033F94B
:100D500000F026F800F031F900F026F800224021DA
:100D600000F02BF90022802100F027F900F022F991
:100D700001224FF4007100F020F900F015F8002274
:100D8000402100F01AF90022802100F016F900F04D
:100D900011F900F005F800F010F900F005F891E7FE
:100DA00000224FF4007170474FF4FA70FFF768BCEF
:100DB00000B593B00FF2082106A891EC0C0B80EC63
:100DC0000C0B01A81421FFF71BFF002000906A48BC
:100DD000016841F080510160006800F0805000908F
:100DE0000098002000906548016841F4804101604E
:100DF000006800F4804000900098022006900120D6
:100E0000099010200A9002200C9000200D900820DC
:100E10000E9064200F90022010900420119006A8DC
:100E2000FFF7B2F908B172B6FEE70F200190032177
:100E300002200290002003904FF4A05004904FF441
:100E40008050059001A8FFF71CFB08B172B6FEE7C1
:100E500013B000BDF0B587B001A81421FFF7D0FE94
:100E60000020009000224648414C01683F4D454E0D
:100E7000454F41F010010160016801F0100100F0E0
:100E80008BF841F004010160016801F0040100F0F9
:100E900083F841F020010160016801F0200100F0B9
:100EA0007BF841F080010160016801F0800100F0F1
:100EB00073F841F001010160016801F0010100F0E7
:100EC0006BF841F002010160016801F0020100F0DD
:100ED00063F841F0080101604FF47071006800F0A0
:100EE00008000090009800F068F8002208212846C9
:100EF000FFF76BFE002201213046FFF766FE00225D
:100F000048213846FFF761FE4FF4005000F03EF8EC
:100F10002846FFF77DFD4FF4707000F043F820463F
:100F2000FFF776FD082000F03DF82846FFF770FD3A
:100F3000012000F02BF80F48FFF76AFD0120019017
:100F4000029001A900F032F83046FFF761FD482019
:100F500000F028F83846FFF75BFD07B0F0BD000051
:100F60001020002000000550003001400008024021
:100F7000001402400000024040380240007000406F
:100F80003038024000040240000C0240019001A9E8
:100F90000020029003907047009100990021009179
:100FA00001687047019001A9012002900020039080
:100FB0000490704700224FF480712046FFF705BE71
:100FC0000000000000000000000000000000000021
:100FD0000000000000000000000000000000000011
:100FE0000000000000000000000000000000000001
:100FF00038B5050001D1012032BD05F12404607827
:1010000030B920702846FFF73BFC2846FFF738FC34
:1010100002206070286801686FF3CB0101602868C6
:1010200001686A686B691A43EB681A432B691A43B3
:10103000AB681A43AB691A432B6A1A431143016028
:10104000686810280BD1287F697F40EA0120A97FBA
:1010500040EA0140E97F40EA016029688861286828
:10106000C16841F01E01C1600020A06101206070D4
:10107000002032BD38B5040001D1012032BD606AC4
:1010800028B900F058F805D00020E06102E0002007
:10109000206160610020A06204F15005687818B9F1
:1010A00028702046FFF749FC0220687000F03CF8E9
:1010B0006068A16800F4827001F404410843E168AB
:1010C00001F400610843217C01F002010843217D05
:1010D00001F001010843A16901F400710843217F77
:1010E00001F03801084394F8201001F08001084312
:1010F000A16A01F40051084321680860A06994F8CE
:101100002410000C00F0040001F0100108432168D5
:1011100048602068C16921F40061C16100206860F5
:1011200001206870002032BD2068016821F0400174
:101130000160704700006068B0F5827F704719E079
:1011400050F8041BCB0744BFA9F101035918121F23
:101150000023042A41F8043BF9D25FEA827C0B4663
:1011600004D54FF0000CA1F800C09B1CD10744BF70
:101170000021197050F8042B002AE1D1704710B4F7
:1011800050F8041B79B10268436812180830DC0774
:1011900044BFA9F10104E31852F8044B43F8044B8F
:1011A000091FF9D1ECE710BC7047000010B50749E2
:1011B00079441831064C7C44163404E00A68081D52
:1011C000511888470146A142F8D110BD2C000000FB
:1011D0004C0000004EF68851CEF20001086840F441
:1011E00070000860BFF34F8FBFF36F8F4FF0007038
:1011F000E1EE100A7047000047FFFFFF9800000073
:10120000102000200000000077FFFFFF100000000A
:101210009400000000000020000000000248016867
:1012200041F470010160704788ED00E000000000AB
:1012300000000000010203040607080900F00BF893
:10124000002801D0FFF7B2FF0020C046C046FFF7DC
:10125000F5FC00F002F80120704700F001B8000032
:101260000746384600F002F8FBE7000080B5C046AC
:10127000C046024A11001820ABBEFBE72600020060
:10128000FEE7FEE7FEE7FEE7FEE7704770477047C0
:10129000FFF7ECB901488047014800471D120008DC
:1012A000B51200080100000000000000100000005E
:1012B0000024F400C046C046FFF78CFFFFF7BEFFD6
:1012C000FFF7FEBFFFF7FEBFFFF7FEBFFFF7FEBF52
:1012D000FFF7FEBFFFF7FEBFFFF7FEBFFFF7FEBF42
:1012E000FFF7FEBFFFF7FEBFFFF7FEBFFFF7FEBF32
:1012F000FFF7FEBFFFF7FEBFFFF7FEBFFFF7FEBF22
:10130000FFF7FEBFFFF7FEBFFFF7FEBFFFF7FEBF11
:10131000FFF7FEBFFFF7FEBFFFF7FEBFFFF7FEBF01
:10132000FFF7FEBFFFF7FEBFFFF7FEBFFFF7FEBFF1
:10133000FFF7FEBFFFF7FEBFFFF7FEBFFFF7FEBFE1
:10134000FFF7FEBFFFF7FEBFFFF7FEBFFFF7FEBFD1
:10135000FFF7FEBFFFF7FEBFFFF7FEBFFFF7FEBFC1
:10136000FFF7FEBFFFF7FEBFFFF7FEBFFFF7FEBFB1
:10137000FFF7FEBFFFF7FEBFFFF7FEBFFFF7FEBFA1
:10138000FFF7FEBFFFF7FEBFFFF7FEBFFFF7FEBF91
:10139000FFF7FEBFFFF7FEBFFFF7FEBFFFF7FEBF81
:1013A000FFF7FEBFFFF7FEBFFFF7FEBFFFF7FEBF71
:1013B000FFF7FEBFFFF7FEBFFFF7FEBFFFF7FEBF61
:1013C000FFF7FEBFFFF7FEBFFFF7FEBFFFF7FEBF51
:1013D000FFF7FEBFFFF7FEBFFFF7FEBFFFF7FEBF41
:1013E000FFF7FEBFFFF7FEBFFFF7FEBFFFF7FEBF31
:1013F000FFF7FEBFFFF7FEBFFFF7FEBFFFF7FEBF21
:04140000FFF7FEBF35
:04000005080012B528
:00000001FF
